:1000000024C1000053C1000051C100004FC10000D5
:100010004DC100004BC1000049C1000047C10000B4
:1000200045C1000043C1000041C100003FC10000C4
:100030003DC100003BC1000039C1000037C10000D4
:1000400035C1000033C1000031C100002FC10000E4
:100050002DC100002BC1000029C100000C94D90A59
:1000600025C100000C94E2090C94B9091FC10000DD
:100070001DC100001BC1000019C1000017C1000014
:1000800015C1000013C1000011C100000FC1000024
:100090000DC100000BC1000009C1000007C1000034
:1000A00005C1000003C1000001C10000FFC0000045
:1000B000FDC00000FBC00000F9C00000F7C0000058
:1000C000F5C00000F3C00000F1C00000EFC0000068
:1000D000EDC00000EBC00000E9C00000E7C0000078
:1000E000E5C00000FB01FF01030207020B020F0243
:1000F00013024F0356035D0364036B038303720310
:1001000083037903330A360A250A290A2F0A6D0A5E
:100110003A0A3E0A440A480A4C0A520A560A5A0A3D
:100120006D0A600A640A680A0000200023002600A5
:1001300029002C002F0032000001000003010601FD
:10014000090100002100240027002A002D003000B2
:10015000330001010000040107010A010000220030
:10016000250028002B002E00310034000201000081
:10017000050108010B010505050507050808080824
:10018000020202020A0A080804040404010101012F
:10019000010101010303030303030303040707072A
:1001A0000C0C0C0C0C0C0C0C0202020206060606CF
:1001B000060606060B0B0B0B0B0B0B0B010210209C
:1001C000200808102040102040800201020108048D
:1001D0000201010204081020408080402010080421
:1001E000020180040201804020100804020108047A
:1001F00002010102040810204080010204081020BE
:10020000408000000A0B02090C0D0E0807030401D0
:1002100000000000000000000000000000000000DE
:1002200000000000000000000000000000001211AB
:1002300010000000000000000000000000000000AE
:1002400000000000000000003C0F11241FBECFEF93
:10025000D1E2DEBFCDBF00E00CBF12E0A0E0B2E013
:10026000E2EBF6E200E00BBF02C007900D92AC3269
:10027000B107D9F728E0ACE2B2E001C01D92AB3380
:10028000B207E1F711E0C5E2D1E000E006C0219736
:100290000109802FFE010E942913C432D10780E09A
:1002A0000807A9F70E94A00C0C945713A9CECF926F
:1002B000DF92EF92FF92CF93DF93FC014785508945
:1002C0006189728983859485A585B6854817590704
:1002D0006A077B0711F480E06EC0EF01CD5BDF4F52
:1002E00084179507A607B7071CF481E0888301C02F
:1002F000188283A194A1A5A1B6A1892B8A2B8B2B4F
:1003000051F33FB7F89480912C0290912D02A09167
:100310002E02B0912F0226B5A89B05C02F3F19F0E1
:100320000196A11DB11D3FBFCC24D82EE92EFA2E77
:10033000C20ED11CE11CF11C42E0CC0CDD1CEE1CF9
:10034000FF1C4A95D1F787A190A5A1A5B2A5B70139
:10035000A601481B590B6A0B7B0B83A194A1A5A195
:10036000B6A1481759076A077B0708F4B4CF28815C
:1003700083859485A585B685222321F00196A11D4C
:10038000B11D03C00197A109B10983879487A5878F
:10039000B687EF010190F081E02D4B855C856D857E
:1003A0007E850680F781E02DCE011995CFA2D8A6D3
:1003B000E9A6FAA681E0DF91CF91FF90EF90DF9060
:1003C000CF900895CF93DF93DC01477055276627C0
:1003D0007727FA013197CD91DC911197E730F1053C
:1003E00030F48827EE58FF4F8F4F0C942913EC817F
:1003F000FD8161E01BC0EC81FD8165E017C0EC81EF
:10040000FD8164E013C0EC81FD8166E00FC0EC81EA
:10041000FD8162E00BC0EC81FD816AE007C0EC81E8
:10042000FD8168E003C0EC81FD8169E0CD01DF91D1
:10043000CF911994CF93DF93EC01CB01BA0126E061
:1004400030E040E050E00E940D13623071058105FC
:10045000910559F18CF46115710581059105F1F053
:100460006130710581059105C1F5E881F98104804C
:10047000F581E02D65E02DC06430710581059105A1
:1004800011F1D4F0653071058105910531F5E881F0
:10049000F9810480F581E02D66E01BC0E881F981D7
:1004A0000480F581E02D64E014C0E881F9810480C6
:1004B000F581E02D61E00DC0E881F9810480F581CE
:1004C000E02D63E006C0E881F9810480F581E02D2C
:1004D00062E0CE01DF91CF911994DF91CF91089521
:1004E0004370552766277727DC01ED91FC91048046
:1004F000F581E02D423051056105710571F0433001
:1005000051056105710559F04130510561057105CD
:1005100011F065E005C066E003C06AE001C069E073
:100520001994CF93DF93EC01CB01BA0123E030E0C3
:1005300040E050E00E940D13613071058105910586
:1005400081F0623071058105910591F0672B682B70
:10055000692BC1F4E881F9810480F581E02D64E024
:100560000DC0E881F9810480F581E02D61E006C0CD
:10057000E881F9810480F581E02D62E0CE01DF9110
:10058000CF911994DF91CF91089543705527662735
:100590007727DC01ED91FC910480F581E02D42305C
:1005A00051056105710571F0433051056105710513
:1005B00059F0413051056105710511F062E005C047
:1005C00063E003C061E001C060E019940F931F93E2
:1005D000CF93DF93EC01E881F9810480F581E02D70
:1005E0008C010D5B1F4FD8018C91811102C060E01E
:1005F00001C062E0CE011995E881F9810480F5819E
:10060000E02DD8018C91811102C061E001C063E04E
:10061000CE011995EBA5FCA5E230F10538F0EE0FFF
:10062000FF1FEE0FFF1F35973197F1F7E881F98132
:100630000480F581E02DD8018C91811102C060E029
:1006400001C062E0CE01DF91CF911F910F9119940B
:10065000CF93DF93EC0120E030E0A9016B897C8926
:100660008D899E890E94A61218161CF4EFA5F8A980
:1006700002C0E9A9FAA9DF91CF9119940F931F93B2
:10068000DC0112960C91129710E009301105D8F593
:10069000F8018827E758FF4F8F4F0C942913ED91ED
:1006A000FC9111970084F185E02D29C0ED91FC911A
:1006B00011970284F385E02D22C0ED91FC911197F2
:1006C0000484F585E02D1BC0ED91FC911197068403
:1006D000F785E02D14C0ED91FC9111970088F18908
:1006E000E02D0DC0ED91FC9111970288F389E02D6A
:1006F00006C0ED91FC9111970488F589E02DCD019C
:100700001F910F9119941F910F910895CF93DF932B
:10071000FC012281222329F1EC0161E083810DD7C4
:1007200061E08C810AD78A81843011F0883031F4FD
:1007300061E08D8102D761E08E8106C0833011F0C7
:10074000863019F461E08D81F8D68EA58F3F49F08F
:1007500061E0F3D66DA581E068278EA5DF91CF918A
:10076000BDC6DF91CF910895CF93DF93FC01228125
:10077000222399F0EC010190F081E02D0480F581B5
:10078000E02D60E019958EA58F3F39F061E0D5D658
:100790006DA58EA5DF91CF91A1C6DF91CF91089570
:1007A000CF92DF92EF92FF920F931F93CF93DF933D
:1007B000FC012281243041F0283031F0233031F027
:1007C000263021F012E003C014E001C013E0EC0178
:1007D0002796E12CF12CC62ED12C01E0C6010E2C5F
:1007E00002C0959587950A94E2F7688180FD60279D
:1007F000FE013497808172D6FFEFEF1AFF0A21962F
:10080000E11660F3DF91CF911F910F91FF90EF9070
:10081000DF90CF9008950F931F93CF93DF93FC0148
:10082000CB01EB01AC85BD851B960D911D912D91E2
:100830003C911E97448155816681778170956095C2
:10084000509541955F4F6F4F7F4F4017510762079B
:100850007307CCF437FD0EC0208931894289538952
:1008600060857185828593850E94AA12AB01BC01C7
:10087000CE0104C04085518562857385DF91CF919B
:100880001F910F91E0C6DF91CF911F910F910895B5
:100890000F931F93CF93DF93FC01CB01EB01AC854A
:1008A000BD851B960D911D912D913C911E97448104
:1008B00055816681778170956095509541955F4F20
:1008C0006F4F7F4F4017510762077307CCF437FD16
:1008D0000EC0208931894289538964857585868552
:1008E00097850E94AA12AB01BC01CE0104C04485C9
:1008F000558566857785DF91CF911F910F91A3C6AE
:10090000DF91CF911F910F910895DC015896ED91E1
:10091000FC9159970484F585E02D438754876587BA
:1009200076874787508B618B728B13AA14AA15AAFE
:1009300016AA13A214A215A216A2138A148A158A43
:10094000168A5A96ED91FC915B970484F585E02D0B
:1009500043875487658776874787508B618B728B77
:1009600013AA14AA15AA16AA13A214A215A216A2B3
:10097000138A148A158A168A5C96ED91FC915D970C
:100980000484F585E02D43875487658776874787FC
:10099000508B618B728B13AA14AA15AA16AA13A2E4
:1009A00014A215A216A2138A148A158A168A5E96B4
:1009B000ED91FC915F970484F585E02D4387548782
:1009C000658776874787508B618B728B13AA14AA31
:1009D00015AA16AA13A214A215A216A2138A148A83
:1009E000158A168A0895CF93DF93FC01208130E0A9
:1009F000F901EE5FFD4F8491F901E454FE4FD4916B
:100A0000F901EA58FE4FC491CC2379F0811110D539
:100A1000EC2FF0E0EE0FFF1FE85DFE4FA591B491C3
:100A2000EC91ED2311F080E001C081E0DF91CF91E6
:100A300008950F931F93CF93DF93FC01EB01AC85D7
:100A4000BD851B960D911D912D913C911E97848122
:100A50009581A681B781081719072A073B073CF53E
:100A6000CA01EB018F01BFDF811121C0EC85FD853B
:100A700083859485A585B685B7FD0EC0F8012089CC
:100A800031894289538960857185828593850E9469
:100A9000AA12AB01BC0105C0F801408551856285F1
:100AA0007385CE01DF91CF911F910F9133C6DF91F6
:100AB000CF911F910F9108950F931F93CF93DF93C1
:100AC000FC01EB01AC85BD851B960D911D912D910F
:100AD0003C911E9784819581A681B78108171907DB
:100AE0002A073B073CF5CA01EB018F017CDF81112E
:100AF00021C0EC85FD8583859485A585B685B7FDE8
:100B00000EC0F80120893189428953896485758531
:100B1000868597850E94AA12AB01BC0105C0F80129
:100B20004485558566857785CE01DF91CF911F91EC
:100B30000F91F0C5DF91CF911F910F910895FC01A6
:100B4000862F608360E0F9C44F925F926F927F922C
:100B5000AF92BF92CF92DF92EF92FF920F931F93CB
:100B6000CF93DF93EC015A018B01CF88D88CE98CAD
:100B7000FA8C2601370177FA709477F87094A30104
:100B80009201B501C8010E94571187FD0BC0A70152
:100B90009601B501C8010E94A61218162CF0650135
:100BA000780102C07301620120E030E0A901C701B1
:100BB000B6010E945711811105C01BA21CA21DA2E3
:100BC0001EA220C0A701960160E074E284E799E4C8
:100BD0000E945B119F770E94C8116BA37CA38DA319
:100BE0009EA35E0183E4A80EB11C11E020E030E07A
:100BF000A901C701B6010E94A61218160CF010E058
:100C0000F5011083CB8ADC8AED8AFE8ADF91CF91D1
:100C10001F910F91FF90EF90DF90CF90BF90AF901A
:100C20007F906F905F904F9008952F923F924F92D8
:100C30005F926F927F928F929F92AF92BF92CF926C
:100C4000DF92EF92FF920F931F93CF93DF9300D029
:100C50001F92CDB7DEB71C01FC0187849088A18864
:100C6000B28883859485A585B685881A990AAA0ACB
:100C7000BB0A63897489858996899B01AC010E94AE
:100C8000AA126B017C01F101638D748D858D968DA7
:100C90009B01AC010E94F3109B01AC01C701B6019E
:100CA0000E945B110E94C31181149104A104B1043C
:100CB000A1F462307105810591050CF07CC0F10151
:100CC00013A214A215A216A2138A148A158A168AD0
:100CD00013AA14AA15AA16AA03C1F10103A914A9FB
:100CE00025A936A9ED5BFF4F181419041A041B043B
:100CF000FCF410161106120613064CF4681579055B
:100D00008A059B054CF52081211155C025C0011590
:100D100011052105310509F44EC0681579058A05CC
:100D20009B050CF048C08081882309F444C037C07B
:100D30001016110612061306F4F400271127980165
:100D4000081919092A093B096017710782079307D7
:100D50001CF42081222379F19B01AC01882799277B
:100D6000DC01821B930BA40BB50BF10183AB94AB9D
:100D7000A5ABB6AB20C00115110521053105D9F091
:100D8000CC24DD247601C818D908EA08FB086C15C4
:100D90007D058E059F057CF4808181110CC0309506
:100DA0002095109501951F4F2F4F3F4FF10103AB39
:100DB00014AB25AB36ABF101C3A8D4A8E5A8F6A8BF
:100DC00081010D5B1F4FC114D104E104F10491F4C2
:100DD00087A990ADA1ADB2AD83AF94AFA5AFB6AFCB
:100DE00081E0181419041A041B040CF080E0F801C7
:100DF000808340C0F10183AC94ACA5ACB6ACA50136
:100E00009401C501B4010E94F3102B013C01C701FC
:100E1000B6010E94F61120E030E040E850E40E9464
:100E2000AA1220E030E040E85FE30E94F3109B014B
:100E3000AC01C301B2010E945B119B01AC01C50171
:100E4000B4010E94F2104B015C01F101FF96408059
:100E50005180628073809201A3010E94A61218162D
:100E600014F042015301A401B501F10143AF54AFA5
:100E700065AF76AFFFEFCF1ADF0AEF0AFF0AF10185
:100E8000C3AAD4AAE5AAF6AA23AD34AD45AD56ADA2
:100E9000CA01B90129833A834B835C830E94C8113C
:100EA000F10163A374A385A396A329813A814B81A1
:100EB0005C8160E074E284E799E40E945B11F101D7
:100EC000638B748B858B968BF8012081211108C070
:100ED000DC01CB01B058F101838B948BA58BB68BD1
:100EE0000F900F900F900F90DF91CF911F910F9166
:100EF000FF90EF90DF90CF90BF90AF909F908F903A
:100F00007F906F905F904F903F902F900895CF9279
:100F1000DF92EF92FF920F93CF93DF93EC0184E087
:100F200092E0998388836A831B861C861D861E86B1
:100F30001F86188A198A1A8A1B8A1C8A1D8A1E8A89
:100F400080E090E0A0E8BFE38F8B988FA98FBA8FE5
:100F50001B8E1C8E1D8E1E8E8F8F98A3A9A3BAA3E5
:100F60001BA21CA21DA21EA261E070E07CA76BA7C1
:100F70003FEF3EA71FA218A619A61AA64B832C83E3
:100F80000D83EE821BAA1CAA1DAA1EAA1FAA18AEB8
:100F900019AE1AAE1BAE1CAE1DAE1EAEFE01FF9604
:100FA00080839183A283B383349610821F82188634
:100FB00019861A86CC2011F0CE01A8DBCB8CDC8CF4
:100FC000ED8CFE8C20E030E040E85FE3C701B60125
:100FD0000E945711882349F16BA97CA98DA99EA96C
:100FE0000E94F611A70196010E94AA120E94C31145
:100FF0006BAB7CAB8DAB9EAB86E896E6A9E6B9E41D
:101000008FAB98AFA9AFBAAF80E090E0A0E8BFE3A4
:101010008B8F9C8FAD8FBE8FCE01DF91CF910F91C3
:10102000FF90EF90DF90CF9000CEDF91CF910F91A6
:10103000FF90EF90DF90CF900895CF93DF93C5EDB1
:10104000D2E0E88DF98D8485958531D9EA8DFB8DC7
:10105000848595852CD9EC8DFD8D8485958527D942
:10106000EE8DFF8D84859585DF91CF9120C90F93FB
:101070001F93E091ED02F091EE020484F585E02DDE
:10108000438554856585768587859089A189B28950
:10109000481759076A077B0711F081E03EC0E091CD
:1010A000EF02F091F0020484F585E02D438554852C
:1010B0006585768587859089A189B2894817590702
:1010C0006A077B0751F7E091F102F091F202048484
:1010D000F585E02D438554856585768587859089DE
:1010E000A189B289481759076A077B07B1F6E091D1
:1010F000F302F091F4020484F585E02D81E003858C
:10110000148525853685478550896189728904173C
:1011100015072607370709F480E01F910F910895FE
:10112000089580E090E00895FC01538D448D252FB3
:1011300030E0842F90E0821B930B541710F0CF9671
:10114000089501970895FC01918D828D981761F0A3
:10115000828DDF01A80FB11D5D968C91928D9F5FEE
:101160009F73928F90E008958FEF9FEF0895FC0199
:10117000918D828D981731F0828DE80FF11D858D4C
:1011800090E008958FEF9FEF0895FC01918D228DDF
:10119000892F90E0805C9F4F821B91098F73992764
:1011A000089588E392E0F1DF21E0892B09F420E043
:1011B000822F0895FC01848DDF01A80FB11DA35A71
:1011C000BF4F2C91848D90E001968F739927848F67
:1011D000A689B7892C93A089B1898C9180648C935E
:1011E000938D848D981306C00288F389E02D808149
:1011F0008F7D80830895EF92FF920F931F93CF937B
:10120000DF93EC0181E0888F9B8D8C8D981305C056
:10121000E889F989808185FD23C0F62E0B8D10E0C9
:101220000F5F1F4F0F731127E02E8C8DE8120BC03C
:101230000FB607FCFACFE889F989808185FFF5CFE1
:10124000CE01B8DFF2CF8B8DFE01E80FF11DE35A1E
:10125000FF4FF0820B8FEA89FB898081806207C093
:10126000EE89FF896083E889F989808180648083C1
:1012700081E090E0DF91CF911F910F91FF90EF906F
:101280000895CF93DF93EC01888D8823C1F0EA891C
:10129000FB89808185FD05C0A889B9898C9186FD6F
:1012A0000EC00FB607FCF5CF808185FFF2CFA8896D
:1012B000B9898C9185FFEDCFCE017CDFE8CFDF913E
:1012C000CF91089580E090E0892B19F06ADF8111B9
:1012D00025C080E090E0892B41F080E090E0892BF0
:1012E00021F00E94000081111CC080E090E0892B59
:1012F00041F080E090E0892B21F00E9400008111F4
:1013000013C080E090E0892BA1F080E090E0892B71
:1013100081F00E94000081110AC008950E9400001F
:10132000D8CF0E940000E1CF0E940000EACF0C94C9
:1013300000000895863308F0865390917B00282F93
:101340002870977F922B90937B00877080648093A6
:101350007C0080917A00806480937A0080917A008A
:1013600086FDFCCF809178002091790090E0922B4F
:1013700008951F920F920FB60F9211240BB60F9281
:101380002F933F934F935F936F937F938F939F938D
:10139000AF93BF93EF93FF9388E392E00BDFFF914E
:1013A000EF91BF91AF919F918F917F916F915F91DD
:1013B0004F913F912F910F900BBE0F900FBE0F904A
:1013C0001F9018951F920F920FB60F9211240BB613
:1013D0000F922F938F939F93EF93FF93E091480287
:1013E000F09149028081E0914E02F0914F0282FD1E
:1013F00012C09081809151028F5F8F7320915202B1
:10140000821751F0E0915102F0E0E85CFD4F958FBA
:101410008093510201C08081FF91EF919F918F9144
:101420002F910F900BBE0F900FBE0F901F9018952D
:1014300090E0FC013197E231F10508F04EC08827B9
:10144000EE57FF4F8F4F0C942913809180008F77B8
:1014500003C0809180008F7D8093800008958091EB
:101460008000877FF9CF84B58F7702C084B58F7DE8
:1014700084BD08958091B0008F7703C08091B00043
:101480008F7D8093B0000895809190008F7707C082
:10149000809190008F7D03C080919000877F809322
:1014A000900008958091A0008F7707C08091A000E0
:1014B0008F7D03C08091A000877F8093A000089556
:1014C000809120018F7707C0809120018F7D03C01C
:1014D00080912001877F8093200108951F93CF93EF
:1014E000DF93282F30E0F901EE5FFD4F8491F90181
:1014F000E454FE4FD491F901EA58FE4FC491CC2335
:10150000C1F0162F811194DFEC2FF0E0EE0FFF1FDA
:10151000E45AFE4FA591B4918FB7F894111105C00C
:101520009C91ED2FE095E92302C0EC91ED2BEC931B
:101530008FBFDF91CF911F910895CF93DF9390E0FC
:10154000FC01E454FE4F2491FC01EA58FE4F8491C3
:10155000882361F190E0880F991FFC01EE5BFE4F3C
:10156000C591D491FC01E45AFE4FA591B49161114B
:1015700009C09FB7F8948881209582238883EC91D5
:101580002E230BC0623061F49FB7F8943881822F0C
:10159000809583238883EC912E2B2C939FBF06C0CC
:1015A0008FB7F894E8812E2B28838FBFDF91CF91DE
:1015B00008951F920F920FB60F9211242F933F930D
:1015C0008F939F93AF93BF9380913102909132029A
:1015D000A0913302B09134023091300223E0230F06
:1015E0002D3720F40196A11DB11D05C026E8230F5B
:1015F0000296A11DB11D2093300280933102909379
:101600003202A0933302B093340280912C02909165
:101610002D02A0912E02B0912F020196A11DB11DA5
:1016200080932C0290932D02A0932E02B0932F0250
:10163000BF91AF919F918F913F912F910F900FBECE
:101640000F901F9018958F929F92AF92BF92CF925A
:10165000DF92EF92FF92CF93DF93EC019A01AB01FF
:101660006C817D818E819F81BDD54B015C018BD6C4
:101670006B017C01688779878A879B87B7D69B0136
:10168000AC01C501B401AED56C837D838E839F838D
:10169000EC85FD8583859485A585B6858C0D9D1D7E
:1016A000AE1DBF1DC784D088E188F288C816D90650
:1016B000EA06FB0631F08787908BA18BB28BCF01B6
:1016C000B4DAC880D980EA80FB800C84DD85C02D27
:1016D0002B893C894D895E89C701B601E8D58823ED
:1016E00071F0B701A601CE01DF91CF91FF90EF908D
:1016F000DF90CF90BF90AF909F908F9025CADF91E1
:10170000CF91FF90EF90DF90CF90BF90AF909F90E0
:101710008F9008958F929F92AF92BF92CF92DF9257
:10172000EF92FF92CF93DF93EC01CB01BA012C81B2
:101730003D814E815F8157D54B015C0124D66B0101
:101740007C01688779878A879B8750D69B01AC018B
:10175000C501B40147D56C837D838E839F83EC855F
:10176000FD8583859485A585B6858C0D9D1DAE1D53
:10177000BF1DC784D088E188F288C816D906EA065A
:10178000FB0631F08787908BA18BB28BCF014DDAAE
:10179000C880D980EA80FB800C84DD85C02D2B8930
:1017A0003C894D895E89C701B60181D5882371F0D6
:1017B000B701A601CE01DF91CF91FF90EF90DF90AE
:1017C000CF90BF90AF909F908F90BEC9DF91CF9187
:1017D000FF90EF90DF90CF90BF90AF909F908F9051
:1017E0000895CF92DF92EF92FF920F931F93CF93C2
:1017F000DF938C01EB01C12CD12C86E9E82E83E428
:10180000F82ED801CD92DD92ED92FC921397F8015B
:10181000148215821682178218961D921D921D92AF
:101820001C921B971D967C936E931C97A7019601A3
:101830006F89788D898D9A8D3AD5882399F1CF8AD1
:10184000D88EE98EFA8E85E595E5A0E5B5E4FE0132
:10185000FF9680839183A283B3838BA99CA9ADA9B2
:10186000BEA9181619061A061B06E4F46B897C89B2
:101870008D899E899B01AC016DD66B017C016B8DBE
:101880007C8D8D8D9E8D9B01AC01ADD49B01AC01F7
:10189000C701B60110D577D56BAB7CAB8DAB9EABDA
:1018A000CE01C3D9D8011C96ED91FC911D971386EA
:1018B0001486158616861786108A118A128A13AA2C
:1018C00014AA15AA16AA13A214A215A216A2138A64
:1018D000148A158A168ADF91CF911F910F91FF907C
:1018E000EF90DF90CF900895CF92DF92EF92FF922A
:1018F0000F931F93CF93DF936C017A018B01C0E0AC
:10190000D0E0CE15DF0589F0D8016D918D01D601AB
:10191000ED91FC910190F081E02DC6011995892B84
:1019200011F47E0102C02196ECCFC701DF91CF9167
:101930001F910F91FF90EF90DF90CF900895B3D655
:10194000789484B5826084BD84B5816084BD85B59A
:10195000826085BD85B5816085BD80916E008160A6
:1019600080936E001092810080918100826080934C
:10197000810080918100816080938100809180004E
:101980008160809380008091B10084608093B10079
:101990008091B00081608093B0008091910082605E
:1019A000809391008091910081608093910080915B
:1019B00090008160809390008091A100826080936C
:1019C000A1008091A10081608093A1008091A0007E
:1019D00081608093A0008091210182608093210129
:1019E000809121018160809321018091200181609B
:1019F0008093200180917A00846080937A008091A6
:101A00007A00826080937A0080917A00816080936E
:101A10007A0080917A00806880937A001092C100E9
:101A2000E0914802F091490282E08083E091440213
:101A3000F09145021082E0914602F09147028FEC4E
:101A4000808310925002E0914C02F0914D0286E0AA
:101A50008083E0914A02F0914B0280818061808313
:101A6000E0914A02F0914B02808188608083E0918E
:101A70004A02F0914B02808180688083E0914A02A3
:101A8000F0914B0280818F7D8083C1E0809137028D
:101A9000811125C1ECDA882311F0CFDAF7CF8091DC
:101AA0003602811124C08091F5029091F6020E94C5
:101AB000F304882309F4A5C18091F7029091F802FC
:101AC0000E94F304882309F49CC18091F90290914B
:101AD000FA020E94F304882309F493C18091FB0267
:101AE0009091FC020E94F3048111C3C18AC18091CC
:101AF000350281115BC04091E9025091EA02609188
:101B0000EB027091EC028091D5029091D602A091E7
:101B1000D702B091D802481759076A077B071CF013
:101B2000C0933502B3CF6091DD027091DE028091E7
:101B3000DF029091E00227D4AB01BC0185ED92E079
:101B40000E9485046091ED027091EE0285ED92E0B5
:101B50000E940B046091EF027091F00285ED92E01B
:101B60000E940B046091F1027091F20285ED92E007
:101B70000E940B046091F3027091F40285ED92E0F3
:101B80000E940B048091E9029091EA02A091EB027D
:101B9000B091EC020196A11DB11D8093E9029093D2
:101BA000EA02A093EB02B093EC0270CFC09337022D
:101BB0006DCF80910303BEDBEC0180910503BADB9E
:101BC000FC014091FD025091FE0260910103709171
:101BD000020381E090E04617570710F080E090E0A4
:101BE000C817D90708F481C02091FF023091000383
:101BF000DA01A21BB30BCA17DB0708F479C0DB01BB
:101C0000A40FB51FAC17BD0708F475C0240F351F0E
:101C1000A1E0B0E02C173D0710F0A0E0B0E02227D3
:101C200033272A1B3B0B3093080320930703E81745
:101C3000F90708F463C08091FF0290910003DA0174
:101C4000A81BB90BEA17FB0708F45AC0640F751FED
:101C50006E177F0708F457C0480F591F61E090E0E6
:101C60004E175F0708F060E0462F892F4093090365
:101C700080930A032230310509F048C06091EF02D9
:101C80007091F00285ED92E00E9448044091FB02C1
:101C90005091FC026091F3027091F40285ED92E0A4
:101CA0000E945C058091090390910A03813091059F
:101CB00009F076C06091ED027091EE0285ED92E040
:101CC0000E9448044091F9025091FA026091F10299
:101CD0007091F20285ED92E00E945C05F3DAC7D9BB
:101CE000882309F466CFA9D9F9CF22E030E09BCF51
:101CF00021E030E098CF2EEF3FEF95CF4EEF01C0BF
:101D00004FEF8FEFB3CF41E080E0B0CF213031050E
:101D1000A9F46091EF027091F00285ED92E00E94CB
:101D20000B044091FB025091FC026091F302709110
:101D3000F40285ED92E00E941905B4CF2E3F8FEF9B
:101D40003807A9F44091F7025091F8026091EF0230
:101D50007091F00285ED92E00E945C056091F302C3
:101D60007091F40285ED92E00E9448049BCF2F3FD2
:101D70003F4F09F097CF4091F7025091F8026091E0
:101D8000EF027091F00285ED92E00E9419056091DA
:101D9000F3027091F40285ED92E00E940B0482CF71
:101DA0008E3F2FEF9207A9F44091F5025091F60271
:101DB0006091ED027091EE0285ED92E00E945C056B
:101DC0006091F1027091F20285ED92E00E94480468
:101DD00085CF019609F082CF4091F5025091F6022D
:101DE0006091ED027091EE0285ED92E00E9419057E
:101DF0006091F1027091F20285ED92E00E940B0475
:101E00006DCF40E050E0BA0185ED92E00E9485047C
:101E10004091F5025091F6026091ED027091EE0250
:101E200085ED92E00E9419054091F7025091F80269
:101E30006091EF027091F00285ED92E00E94190529
:101E40004091F9025091FA026091F1027091F20210
:101E500085ED92E00E9419054091FB025091FC0231
:101E60006091F3027091F40285ED92E00E941905F1
:101E70000DCEC09336020ACECF92EF920F93E8E3D5
:101E8000F2E01382128288EE93E0A0E0B0E0848357
:101E90009583A683B7838EE192E09183808385EC5E
:101EA00090E09587848784EC90E09787868780EC24
:101EB00090E0918B808B81EC90E0938B828B82EC15
:101EC00090E0958B848B86EC90E0978B868B118EBF
:101ED000128E138E148EEDEFF2E088E092E0918383
:101EE000808384E190E0938382838CE291E0958308
:101EF000848313861286158614868EE390E097837A
:101F000086838FE390E09187808760E08EE315DB26
:101F100060E08FE312DBCC24C39485E0E82E04E07C
:101F20002AE14CE161E087EF97E00E94870767EFC5
:101F300077E089EE97E055DC65E188EE97E00E9456
:101F40009F052BE24DE261E084EA97E00E9487075B
:101F500064EA77E086E997E044DC64E185E997E0AC
:101F60000E949F052FE141E261E081E597E00E9438
:101F7000870761E577E083E497E033DC63E182E49F
:101F800097E00E949F0523E245E261E08EEF96E034
:101F90000E9487076EEF76E080EF96E022DC62E138
:101FA0008FEE96E00E949F0527E249E261E08BEA0E
:101FB00096E00E9487076BEA76E08DE996E011DCF7
:101FC00061E18CE996E00E949F052EE140E261E02C
:101FD00088E596E00E94870768E576E08AE496E067
:101FE00000DC60E089E496E00E949F0522E344E380
:101FF00061E085E096E00E94870765E076E087EF84
:1020000095E0EFDB6FE086EF95E00E949F0522E20E
:1020100044E261E082EB95E00E94870762EB75E0A5
:1020200084EA95E0DEDB6EE083EA95E00E949F059E
:1020300027E149E161E08FE595E00E9487076FE5C0
:1020400075E081E595E0CDDB61E080E595E00E94FB
:102050009F052AE24CE261E08CE095E00E94870750
:102060006CE075E08EEF94E0BCDB60E18DEF94E016
:102070000E949F0526E248E261E089EB94E00E941D
:10208000870769EB74E08BEA94E0ABDB62E08AEAF5
:1020900094E00E949F052EE240E361E086E694E032
:1020A0000E94870766E674E088E594E09ADB63E0C7
:1020B00087E594E00E949F052FE241E361E083E120
:1020C00094E00E94870763E174E085E094E089DB97
:1020D00064E084E094E00E949F0523E345E361E02F
:1020E00080EC93E00E94870760EC73E082EB93E062
:1020F00078DB65E081EB93E00E949F052BE14DE1E9
:1021000061E08DE693E00E9487076DE673E08FE55E
:1021100093E067DB66E08EE593E00E949F0526E191
:1021200048E161E08AE193E00E9487076AE173E099
:102130008CE093E056DB67E08BE093E00E949F0524
:10214000E5EDF2E081E496E0A0E0B0E080839183E9
:10215000A283B38380E496E0A0E0B0E0848395831B
:10216000A683B78380E090E0A0E8BFE380879187F3
:10217000A287B38780E090E0A0EAB0E484879587E7
:10218000A687B78786E696E6A6EABFE3808B918BA3
:10219000A28BB38B148A158A168A178A89EE97E068
:1021A000918F808F86E997E0938F828F83E497E009
:1021B000958F848F80EF96E0978F868F88EE97E0DB
:1021C00091A380A385E997E093A382A382E497E09B
:1021D00095A384A38FEE96E097A386A30F91EF902B
:1021E000CF9008955058BB27AA270ED075C166D14D
:1021F00030F06BD120F031F49F3F11F41EF45BC13D
:102200000EF4E095E7FB51C1E92F77D180F3BA17BF
:10221000620773078407950718F071F49EF58FC164
:102220000EF4E0950B2EBA2FA02D0B01B9019001F1
:102230000C01CA01A0011124FF27591B99F0593F35
:1022400050F4503E68F11A16F040A22F232F342F7D
:102250004427585FF3CF469537952795A795F040CB
:102260005395C9F77EF41F16BA0B620B730B840BE0
:10227000BAF09150A1F0FF0FBB1F661F771F881F98
:10228000C2F70EC0BA0F621F731F841F48F48795F0
:1022900077956795B795F7959E3F08F0B3CF9395DF
:1022A000880F08F09927EE0F979587950895D9D054
:1022B00008F481E008950CD00FC107D140F0FED0A2
:1022C00030F021F45F3F19F0F0C0511139C1F3C073
:1022D00014D198F39923C9F35523B1F3951B550BEA
:1022E000BB27AA2762177307840738F09F5F5F4FE9
:1022F000220F331F441FAA1FA9F333D00E2E3AF02A
:10230000E0E830D091505040E695001CCAF729D043
:10231000FE2F27D0660F771F881FBB1F2617370792
:102320004807AB07B0E809F0BB0B802DBF01FF27C2
:1023300093585F4F2AF09E3F510568F0B6C000C128
:102340005F3FECF3983EDCF3869577956795B795FC
:10235000F7959F5FC9F7880F911D9695879597F917
:102360000895E1E0660F771F881FBB1F6217730790
:102370008407BA0720F0621B730B840BBA0BEE1FA5
:1023800088F7E095089504D06894B111D9C00895F4
:10239000BCD088F09F5790F0B92F9927B751A0F083
:1023A000D1F0660F771F881F991F1AF0BA95C9F7E9
:1023B00012C0B13081F0C3D0B1E00895C0C0672F22
:1023C000782F8827B85F39F0B93FCCF38695779599
:1023D0006795B395D9F73EF4909580957095619582
:1023E0007F4F8F4F9F4F0895E89409C097FB3EF4AD
:1023F00090958095709561957F4F8F4F9F4F992352
:10240000A9F0F92F96E9BB279395F69587957795CF
:102410006795B795F111F8CFFAF4BB0F11F460FF8F
:102420001BC06F5F7F4F8F4F9F4F16C0882311F0E7
:1024300096E911C0772321F09EE8872F762F05C0FB
:10244000662371F096E8862F70E060E02AF09A9596
:10245000660F771F881FDAF7880F9695879597F98B
:102460000895990F0008550FAA0BE0E8FEEF161625
:102470001706E807F907C0F012161306E407F50778
:1024800098F0621B730B840B950B39F40A2661F0EC
:10249000232B242B252B21F408950A2609F4A1408F
:1024A000A6958FEF811D811D089597F99F6780E89C
:1024B00070E060E008959FEF80EC089500240A9496
:1024C0001616170618060906089500240A9412160F
:1024D0001306140605060895092E0394000C11F442
:1024E000882352F0BB0F40F4BF2B11F460FF04C0EF
:1024F0006F5F7F4F8F4F9F4F089557FD9058440F48
:10250000551F59F05F3F71F04795880F97FB991F52
:1025100061F09F3F79F0879508951216130614060F
:10252000551FF2CF4695F1DF08C01616170618069C
:10253000991FF1CF86957105610508940895E89477
:10254000BB2766277727CB0197F908958ADF08F420
:102550008FEF08950BD0C0CFB1DF28F0B6DF18F0B1
:10256000952309F0A2CFA7CF1124EACFC6DFA0F3AD
:10257000959FD1F3950F50E0551F629FF001729F18
:10258000BB27F00DB11D639FAA27F00DB11DAA1F37
:10259000649F6627B00DA11D661F829F2227B00D84
:1025A000A11D621F739FB00DA11D621F839FA00D0F
:1025B000611D221F749F3327A00D611D231F849F5F
:1025C000600D211D822F762F6A2F11249F575040B6
:1025D0008AF0E1F088234AF0EE0FFF1FBB1F661F51
:1025E000771F881F91505040A9F79E3F510570F00A
:1025F0005CCFA6CF5F3FECF3983EDCF386957795F2
:102600006795B795F795E7959F5FC1F7FE2B880F04
:10261000911D9695879597F90895052E97FB16F4C9
:1026200000940FD057FD05D01CD007FC02D046F413
:1026300008C050954095309521953F4F4F4F5F4FC3
:10264000089590958095709561957F4F8F4F9F4F1E
:102650000895EE0FFF1F881F8BBF0790F691E02DA6
:102660001994A1E21A2EAA1BBB1BFD010DC0AA1FC3
:10267000BB1FEE1FFF1FA217B307E407F50720F0EB
:10268000A21BB30BE40BF50B661F771F881F991F66
:102690001A9469F760957095809590959B01AC01AF
:1026A000BD01CF01089581E090E0F89400C0F89456
:0226B000FFCF5A
:1026B20000000000B4038603D0033E032803E602B1
:1026C200C502910270021A02E20100000000FB083A
:0C26D200740C94084109C508A308B7085F
:020000023000CC
:10E000000D9489F10D94B2F10D94B2F10D94B2F129
:10E010000D94B2F10D94B2F10D94B2F10D94B2F1F0
:10E020000D94B2F10D94B2F10D94B2F10D94B2F1E0
:10E030000D94B2F10D94B2F10D94B2F10D94B2F1D0
:10E040000D94B2F10D94B2F10D94B2F10D94B2F1C0
:10E050000D94B2F10D94B2F10D94B2F10D94B2F1B0
:10E060000D94B2F10D94B2F10D94B2F10D94B2F1A0
:10E070000D94B2F10D94B2F10D94B2F10D94B2F190
:10E080000D94B2F10D94B2F10D94B2F10D94B2F180
:10E090000D94B2F10D94B2F10D94B2F10D94B2F170
:10E0A0000D94B2F10D94B2F10D94B2F10D94B2F160
:10E0B0000D94B2F10D94B2F10D94B2F10D94B2F150
:10E0C0000D94B2F10D94B2F10D94B2F10D94B2F140
:10E0D0000D94B2F10D94B2F10D94B2F10D94B2F130
:10E0E0000D94B2F141546D656761323536300041AF
:10E0F000726475696E6F206578706C6F72657220DE
:10E1000073746B3530305632206279204D4C530099
:10E11000426F6F746C6F616465723E004875683F52
:10E1200000436F6D70696C6564206F6E203D200048
:10E130004350552054797065202020203D20005FF9
:10E140005F4156525F415243485F5F3D2000415658
:10E1500052204C696243205665723D20004743437C
:10E160002056657273696F6E203D20004350552024
:10E1700049442020202020203D20004C6F7720663D
:10E18000757365202020203D20004869676820665F
:10E190007573652020203D200045787420667573D6
:10E1A00065202020203D20004C6F636B2066757336
:10E1B000652020203D20004D617220203720323024
:10E1C000313300312E362E3800342E332E350056A2
:10E1D00023202020414444522020206F7020636F70
:10E1E00064652020202020696E73747275637469E1
:10E1F0006F6E2061646472202020496E74657272B3
:10E20000757074006E6F20766563746F7200726A49
:10E210006D702020006A6D70200057686174207056
:10E220006F72743A00506F7274206E6F7420737541
:10E2300070706F72746564004D7573742062652030
:10E2400061206C6574746572002000577269747483
:10E25000696E672045450052656164696E672045B7
:10E26000450045452065727220636E743D00504F35
:10E27000525400303D5A65726F2061646472003FF1
:10E280003D43505520737461747300403D454550C3
:10E29000524F4D207465737400423D426C696E6B41
:10E2A000204C454400453D44756D70204545505215
:10E2B0004F4D00463D44756D7020464C415348001B
:10E2C000483D48656C70004C3D4C69737420492F83
:10E2D0004F20506F72747300513D51756974005234
:10E2E0003D44756D702052414D00563D73686F7707
:10E2F00020696E7465727275707420566563746FF0
:10E30000727300593D506F727420626C696E6B00BD
:10E310002A0011241FBECFEFD1E2DEBFCDBF01E046
:10E320000CBF12E0A0E0B2E0EEE1FDEF03E00BBFB6
:10E3300002C007900D92A030B107D9F712E0A0E01B
:10E34000B2E001C01D92AE30B107E1F70F9460F367
:10E350000D948DFE01E20EBF0FEF0DBF11241FBE05
:10E360000D9460F30D9400F020E030E040ED57E0B4
:10E3700005C0FA013197F1F72F5F3F4F2817390792
:10E38000C0F308959C01260F311DC901A0E0B0E043
:10E390002F5F3F4FABBFFC018791882361F08093D3
:10E3A000C6008091C00086FFFCCF8091C0008064D1
:10E3B0008093C000EACF08958DE08093C6008091DD
:10E3C000C00086FFFCCF8091C00080648093C000B5
:10E3D0008AE08093C6008091C00086FFFCCF8091C8
:10E3E000C00080648093C00008950F94C2F10F9420
:10E3F000DCF10895FC019081992359F09093C600B7
:10E400008091C00086FFFCCF8091C0008064809323
:10E41000C0003196992379F70895282F982F929567
:10E420009F70892F805D8A3308F0895F8093C600D2
:10E430008091C00086FFFCCF8091C00080648093F3
:10E44000C000822F8F70982F905D9A3308F0995FEB
:10E450009093C6008091C00086FFFCCF8091C000E1
:10E4600080648093C00008959C01FB01853691056E
:10E470001CF46330710594F0C90164E670E00F94F8
:10E480002EFE605D7F4F6093C6008091C00086FFC6
:10E49000FCCF8091C00080648093C0002B30310598
:10E4A00014F43297B4F0C90164E670E00F942EFEC4
:10E4B0006AE070E00F942EFE605D7F4F6093C600AF
:10E4C0008091C00086FFFCCF8091C0008064809363
:10E4D000C000C9016AE070E00F942EFEC0968093E0
:10E4E000C6008091C00086FFFCCF8091C000806490
:10E4F0008093C00008951F93182F8EE692EE60E07F
:10E500000F94C2F11093C6008091C00086FFFCCF2B
:10E510008091C00080648093C0000F94DCF11F9153
:10E5200008952F923F924F925F926F927F928F92B7
:10E530009F92AF92BF92CF92DF92EF92FF920F9392
:10E540001F93DF93CF93CDB7DEB762970FB6F894E2
:10E55000DEBF0FBECDBF382E622ECA01DB015C01CB
:10E560006D01772420E2222E2E010894411C511CBB
:10E570008BC081E0A81680E0B80681E0C80680E084
:10E58000D80628F0C601AA27BB270F940DF2BB2797
:10E59000AD2D9C2D8B2D0F940DF28A2D0F940DF225
:10E5A0002092C6008091C00086FFFCCF8091C00001
:10E5B00080648093C0009DE29093C6008091C0006B
:10E5C00086FFFCCF8091C00080648093C0002092C1
:10E5D000C6008091C00086FFFCCF8091C00080649F
:10E5E0008093C00019828601750188249924A1E0D6
:10E5F0003A1651F03A1620F0B2E03B1661F409C029
:10E600000BBFF701779007C0C7010F9477FE782EF4
:10E6100002C0F7017080872D0F940DF22092C60082
:10E620008091C00086FFFCCF8091C0008064809301
:10E63000C000872D8052F401EF70F0708F3520F408
:10E64000E40DF51D708204C0E40DF51D8EE280839B
:10E650000894E11CF11C011D111D0894811C911CE2
:10E6600090E18916910409F0C2CF80E190E0A0E02A
:10E67000B0E0A80EB91ECA1EDB1E198AC2010F9493
:10E68000FAF10F94DCF16A94662009F072CF629679
:10E690000FB6F894DEBF0FBECDBFCF91DF911F91B3
:10E6A0000F91FF90EF90DF90CF90BF90AF909F9031
:10E6B0008F907F906F905F904F903F902F90089534
:10E6C0002F923F924F925F926F927F928F929F9282
:10E6D000AF92BF92CF92DF92EF92FF920F931F9370
:10E6E000DF93CF93CDB7DEB7CD53D1400FB6F894BB
:10E6F000DEBF0FBECDBF01E20EBF0FEF0DBF94B75F
:10E70000F894A89514BE80916000886180936000A1
:10E7100010926000789493FF05C0E0910002F091A0
:10E7200001021995279A2F9A8091C00082608093E8
:10E73000C00080E18093C40088E18093C1000000A4
:10E74000EE24FF24870144E0A42EB12CCC24DD2448
:10E7500024C0C5010197F1F70894E11CF11C011DCB
:10E76000111D21E2E2162EE4F20620E0020720E06D
:10E77000120718F031E0C32ED12CC801B70127ECE5
:10E780003BE140E050E00F9441FE611571058105C9
:10E79000910519F485B1805885B98091C00087FD35
:10E7A00003C0C114D104A9F2A6014F5F5F4FC25E3E
:10E7B000DE4F59834883CE51D140C25EDE4F8881FF
:10E7C0009981CE51D140019711F00D9410FEC05D9A
:10E7D000DE4F19821882C053D14060E0C15DDE4F28
:10E7E0001882CF52D14088249924C35DDE4F19820C
:10E7F0001882CD52D140C05EDE4F188219821A8233
:10E800001B82C052D140CE5CDE4F188219821A8220
:10E810001B82C253D140EE24FF2487010BBFF701B6
:10E8200007911691C45CDE4F19830883CC53D14005
:10E830000D940BFEC25EDE4F28813981CE51D1404E
:10E840002130310509F52091C600C25EDE4F1982E4
:10E850001882CE51D14022C02F5F3F4F4F4F5F4FA4
:10E86000213082E138078AE7480780E0580780F0C6
:10E87000C45CDE4FE881F981CC53D140EF5FFF4F9C
:10E8800019F0EE27FF27099420E030E040E050E047
:10E890008091C00087FFE0CF2091C600C35DDE4FAE
:10E8A00048815981CD52D1404F5F5F4FC35DDE4FEC
:10E8B00059834883CD52D140213209F063C64A3092
:10E8C000510508F05FC60894811C911C53E0851621
:10E8D000910409F059C600E010E018C081E280936D
:10E8E000C6008091C00086FFFCCF8091C00080648C
:10E8F0008093C0002F5F3F4F2931310579F70F9486
:10E90000DCF10F5F1F4F0530110519F020E030E0FA
:10E91000E5CF10920A0210920B0210920C02109294
:10E920000D02109206021092070210920802109235
:10E930000902109202021092030210920402109235
:10E9400005028FEE90EE60E00F94F5F180E191EE1C
:10E9500060E00F94C2F18091C00087FFFCCF9091DE
:10E96000C600903608F09F759032B8F09093C600BC
:10E970008091C00086FFFCCF8091C00080648093AE
:10E98000C000A0E2A093C6008091C00086FFFCCF2B
:10E990008091C00080648093C000983409F4D7C18E
:10E9A0009934B8F4923409F459C1933458F490333B
:10E9B00019F1903308F4E3C59F33A1F1903409F0C5
:10E9C000DEC5BDC0953409F470C1963409F0D7C5D1
:10E9D00098C1923509F42BC2933538F49C3409F46C
:10E9E000F5C1913509F0CBC518C2963509F445C279
:10E9F000993509F0C4C567C483E792EE62E00F94CD
:10EA0000F5F110920602109207021092080210927D
:10EA1000090210920A0210920B0210920C0210923C
:10EA20000D0213C18FE792EE62E00F94F5F18FEEC5
:10EA300090EE60E00F94F5F181E291EE60E00F94CA
:10EA4000C2F187EB91EE60E00F94F5F180E391EE77
:10EA500060E00F94C2F184EE90EE60E00F94F5F167
:10EA60008FE391EE60E00F94C2F186E090E061E008
:10EA700070E00F9434F20F94DCF18DE591EE60E0DC
:10EA80000F94C2F189EC91EE60E00F94F5F18EE401
:10EA900091EE60E00F94C2F183EC91EE60E00F9490
:10EAA000F5F18CE691EE60E00F94C2F18EE10F94E7
:10EAB0000DF288E90F940DF281E00F940DF20F949E
:10EAC000DCF18BE791EE60E00F94C2F119E0E0E039
:10EAD000F0E010935700E4918E2F0F940DF20F94F5
:10EAE000DCF18AE891EE60E00F94C2F1E3E0F0E03F
:10EAF00010935700E4918E2F0F940DF20F94DCF1D8
:10EB000089E991EE60E00F94C2F1E2E0F0E0109349
:10EB10005700E4918E2F0F940DF20F94DCF188EAE8
:10EB200091EE60E00F94C2F1E1E0F0E01093570045
:10EB30001491812F0F940DF20F94DCF107CF8BE825
:10EB400092EE62E00F94F5F18BE492EE60E00F94A8
:10EB5000F5F10F94DCF100E010E019C0C8016F2D51
:10EB60000F947FFEFF2031F489E492EE60E00F9471
:10EB7000C2F10BC0F092C6008091C00086FFFCCFAE
:10EB80008091C00080648093C0000F5F1F4FC80158
:10EB900081519F41A0E0B0E0ABBFFC01F790BAE229
:10EBA000FB1621F0E2E000301E07C1F60F94DCF105
:10EBB0000F94DCF187E592EE60E00F94F5F10F948D
:10EBC000DCF1CC24DD2400E010E01EC0C8010F946D
:10EBD00077FEF82E882331F489E492EE60E00F94FA
:10EBE000C2F10BC08093C6008091C00086FFFCCFAD
:10EBF0008091C00080648093C000FE1419F00894D6
:10EC0000C11CD11C0F5F1F4FC80181519F41A0E063
:10EC1000B0E0ABBFFC01E790FAE2EF1621F022E092
:10EC20000030120799F60F94DCF10F94DCF182E6C4
:10EC300092EE60E00F94C2F1C60161E070E00F94C3
:10EC400034F20F94DCF10F94DCF110920202109276
:10EC50000302109204021092050278CE89E992EE26
:10EC600062E00F94F5F1279A2F9A16C02F9880E052
:10EC700090E0E0EDF7E03197F1F7019684369105E9
:10EC8000C1F72F9A80E090E0E0EDF7E03197F1F7DF
:10EC9000019684369105C1F78091C00087FFE6CFC9
:10ECA0008091C00087FFFCCF64C485EA92EE62E0E9
:10ECB0000F94F5F140910202509103026091040219
:10ECC0007091050281E020E10F9491F2809102029F
:10ECD00090910302A0910402B091050280509F4FD1
:10ECE000AF4FBF4F8093020290930302A0930402A0
:10ECF000B093050280509041A040B04008F426CE69
:10ED0000A4CF83EB92EE62E00F94F5F140910602FE
:10ED100050910702609108027091090280E020E1A1
:10ED20000F9491F28091060290910702A09108023F
:10ED3000B091090280509F4FAF4FBF4F80930602A2
:10ED400090930702A0930802B0930902FFCD80ECD4
:10ED500092EE62E00F94F5F183E792EE60E00F949B
:10ED6000F5F18FE792EE60E00F94F5F18BE892EE0B
:10ED700060E00F94F5F189E992EE60E00F94F5F10F
:10ED800085EA92EE60E00F94F5F183EB92EE60E09D
:10ED90000F94F5F180EC92EE60E00F94F5F187ECC2
:10EDA00092EE60E00F94F5F188ED92EE60E00F9442
:10EDB000F5F18FED92EE60E00F94F5F18AEE92EEB0
:10EDC00060E00F94F5F183E093EEBDCD87EC92EE19
:10EDD00062E00F94F5F181E40F947BF282E40F94EA
:10EDE0007BF283E40F947BF284E40F947BF285E45E
:10EDF0000F947BF286E40F947BF287E40F947BF20E
:10EE000088E40F947BF28AE40F947BF28BE40F94F6
:10EE10007BF28CE40F947BF299CD88ED92EE62E068
:10EE20000F94F5F1772473948824992409C48FED05
:10EE300092EE62E00F94F5F140910A0250910B02BC
:10EE400060910C0270910D0282E020E10F9491F22A
:10EE500080910A0290910B02A0910C02B0910D02D8
:10EE600080509F4FAF4FBF4F80930A0290930B0289
:10EE7000A0930C02B0930D0269CD8AEE92EE62E08F
:10EE80000F94F5F184EE90EE60E00F94F5F18FECC5
:10EE900091EE60E00F94F5F1662477244301CC5D98
:10EEA000DE4F19821882C452D140D401C301B695F5
:10EEB000A79597958795CA5DDE4F88839983AA8326
:10EEC000BB83C652D140CC5DDE4FA881B981C4520C
:10EED000D1401196CC5DDE4FB983A883C452D14096
:10EEE000CD0162E070E00F9434F2B0E2B093C6005E
:10EEF0008091C00086FFFCCF8091C0008064809329
:10EF0000C000EDE2E093C6008091C00086FFFCCF18
:10EF10008091C00080648093C000F0E2F093C6004E
:10EF20008091C00086FFFCCF8091C00080648093F8
:10EF3000C000CA5DDE4FE880F9800A811B81C6529D
:10EF4000D140BB27A12F902F8F2D0F940DF2CA5DBA
:10EF5000DE4F8881C652D1400F940DF2B0E2FB2EF5
:10EF6000F092C6008091C00086FFFCCF8091C00067
:10EF700080648093C0000DE30093C6008091C000C0
:10EF800086FFFCCF8091C00080648093C00010E2B7
:10EF90001093C6008091C00086FFFCCF8091C00016
:10EFA00080648093C0008BBEF3012791C65DDE4F65
:10EFB0002883CA52D140A22EBB24CC24DD2408943D
:10EFC000611C711C811C911C8BBEF3018791282E42
:10EFD0003324442455240894611C711C811C911C09
:10EFE0008BBEF3013791C55DDE4F3883CB52D140E4
:10EFF0000894611C711C811C911C8BBEF30147910C
:10F00000C45DDE4F4883CC52D140ADEFEA2EAFEF66
:10F01000FA2EAFEF0A2FAFEF1A2F6E0C7F1C801E57
:10F02000911E142D032DF22CEE24EA0CFB1C0C1D5A
:10F030001D1D0F940DF220E22093C6008091C000A8
:10F0400086FFFCCF8091C00080648093C000C65DC5
:10F05000DE4F8881CA52D1400F940DF230E23093D6
:10F06000C6008091C00086FFFCCF8091C000806404
:10F070008093C000C45DDE4F8881CC52D1400F9494
:10F080000DF240E24093C6008091C00086FFFCCFA5
:10F090008091C00080648093C000C55DDE4F888190
:10F0A000CB52D1400F940DF250E25093C6008091A4
:10F0B000C00086FFFCCF8091C00080648093C000B8
:10F0C0008FEFE8168FEFF80680E0080780E018075A
:10F0D00031F484E092EE60E00F94C2F1DFC0D80119
:10F0E000C7018070907CA070B0708050904CA040A0
:10F0F000B040D1F52FEF3FE340E050E0E222F322B1
:10F1000004231523CA5DDE4FA880B980CA80DB8046
:10F11000C652D140AE0CBF1CC01ED11EAA0CBB1CD7
:10F12000CC1CDD1C8EE092EE60E00F94C2F1BB2798
:10F13000A12F902F8F2D0F940DF28E2D0F940DF285
:10F1400030E23093C6008091C00086FFFCCF8091F2
:10F15000C00080648093C0004EE34093C60080915D
:10F16000C00086FFFCCF87C08EE09EEFA0E0B0E03D
:10F17000E822F9220A231B239CE0E91694E9F90608
:10F1800090E0090790E0190709F088C0C45DDE4FE0
:10F19000A881CC52D140EA2EFF2400E010E0102FCD
:10F1A0000F2DFE2CEE24C55DDE4FB881CB52D14031
:10F1B000EB0EF11C011D111DD601C501817090706F
:10F1C000A070B070DC0199278827E80EF91E0A1F8D
:10F1D0001B1F20EF30E040E050E0A222B322C42207
:10F1E000D52241E1AA0CBB1CCC1CDD1C4A95D1F7F1
:10F1F000EA0CFB1C0C1D1D1D81E090E0A0E0B0E0BE
:10F20000282239224A225B2235E1220C331C441C7D
:10F21000551C3A95D1F7E20CF31C041D151D57013E
:10F220006801AA0CBB1CCC1CDD1C85E192EE60E0E1
:10F230000F94C2F1C801AA27BB270F940DF2BB2778
:10F24000A12F902F8F2D0F940DF28E2D0F940DF274
:10F2500090E29093C6008091C00086FFFCCF809121
:10F26000C00080648093C000AEE3A093C60080918C
:10F27000C00086FFFCCF8091C00080648093C000F6
:10F28000C601AA27BB270F940DF2BB27AD2D9C2DDD
:10F290008B2D0F940DF28A2D0F940DF20F94DCF14B
:10F2A000CC5DDE4FE881F981C452D140F99709F471
:10F2B0004DCBF4E0EF2EF12C012D112D6E0C7F1CA7
:10F2C000801E911EF2CD83E093EE62E00F94F5F183
:10F2D0008AE192EE60E00F94C2F18091C00087FF56
:10F2E000FCCF1091C6001F751093C6008091C0001E
:10F2F00086FFFCCF8091C00080648093C0000F9493
:10F30000DCF1812F81548A3108F036C1163409F4BA
:10F3100095C0173490F4133409F44EC0143430F40B
:10F320001134F1F0123409F01DC130C0143409F465
:10F3300059C0153409F016C16BC01A3409F4C4C0A1
:10F340001B3438F4173409F48FC0183409F00AC19B
:10F35000A1C01B3409F4D2C01C3409F003C1E8C0B9
:10F360008FEF81B90DC082B1809582B980E090E0C5
:10F37000E0EDF7E03197F1F70196883C9105C1F790
:10F380008091C00087FFEFCF12B8EFC08FEF84B934
:10F390000DC085B1809585B980E090E0E0EDF7E0A3
:10F3A0003197F1F70196883C9105C1F78091C00033
:10F3B00087FFEFCF15B8D9C08FEF87B90DC088B1DF
:10F3C000809588B980E090E0E0EDF7E03197F1F7C3
:10F3D0000196883C9105C1F78091C00087FFEFCF6F
:10F3E00018B8C3C08FEF8AB90DC08BB180958BB9A7
:10F3F00080E090E0E0EDF7E03197F1F70196883C8E
:10F400009105C1F78091C00087FFEFCF1BB8ADC059
:10F410008FEF8DB90DC08EB180958EB980E090E0F0
:10F42000E0EDF7E03197F1F70196883C9105C1F7DF
:10F430008091C00087FFEFCF1EB897C08FEF80BBD1
:10F440000DC081B3809581BB80E090E0E0EDF7E0F6
:10F450003197F1F70196883C9105C1F78091C00082
:10F4600087FFEFCF11BA81C08FEF83BB0DC084B38C
:10F47000809584BB80E090E0E0EDF7E03197F1F714
:10F480000196883C9105C1F78091C00087FFEFCFBE
:10F4900014BA6BC08FEF809301010FC080910201FD
:10F4A00080958093020180E090E0E0EDF7E03197F5
:10F4B000F1F70196883C9105C1F78091C00087FF64
:10F4C000EDCF1092020151C08FEF809304010FC065
:10F4D0008091050180958093050180E090E0E0ED4A
:10F4E000F7E03197F1F70196883C9105C1F78091DB
:10F4F000C00087FFEDCF1092050137C08FEF8093DA
:10F5000007010FC08091080180958093080180E079
:10F5100090E0E0EDF7E03197F1F70196883C910536
:10F52000C1F78091C00087FFEDCF109208011DC088
:10F530008FEF80930A010FC080910B01809580931B
:10F540000B0180E090E0E0EDF7E03197F1F70196F4
:10F55000883C9105C1F78091C00087FFEDCF1092E4
:10F560000B0103C085E292EEEEC98091C00087FFD7
:10F57000FCCF8091C600EAC988E392EEE4C98CE131
:10F5800091EEE1C988249924933011F1943028F444
:10F59000913089F09230B8F408C0953061F195301F
:10F5A000F0F0963009F048C043C02B3109F042C951
:10F5B00091E06BE13FC96227C15DDE4F2883CF52E6
:10F5C000D14092E037C9B22FA0E0622793E032C960
:10F5D000822F90E0A82BB92B622794E02BC92E3004
:10F5E00009F039C3622795E0C05DDE4F19821882A9
:10F5F000C053D1401FC9E1E0F0E0EC0FFD1FC05D3A
:10F60000DE4F08811981C053D140E00FF11F2083E4
:10F610000F5F1F4FC05DDE4F19830883C053D14079
:10F6200062270A171B0709F005C9D80196E002C92D
:10F63000261709F010C303C0973009F0FBC87724E0
:10F640009981933109F412C19431C8F4963009F4C8
:10F65000D8C0973050F4923009F406C1933009F4C1
:10F660006DC0913009F059C253C0913109F477C08F
:10F67000923108F0BBC0903109F04FC2F5C098310B
:10F6800009F487C0993150F4953109F4EFC09531F0
:10F6900008F4C6C1963109F040C2C2C19A3109F4DA
:10F6A0006CC09A3108F491C09B3109F45BC09D3164
:10F6B00009F033C29D81903359F48F81882311F46E
:10F6C0009EE11CC0813011F091E018C098E916C08D
:10F6D000892F807591F0903539F4E0E0F0E089E011
:10F6E0008093570094910AC0983539F4E3E0F0E034
:10F6F00089E080935700949101C090E01A821B82A8
:10F700008D818C831D829E831F8227E030E009C299
:10F710001A8288E08B8381E48C8386E58D8382E581
:10F720008E8389E48F8383E5888780E589878FE5E9
:10F730008A8782E38B872BE030E0F3C18A818139AD
:10F7400041F0823941F0803911F48FE005C080E04A
:10F7500003C082E001C08AE01A828B8344C0772410
:10F76000739482C08D81882311F48EE12CC0813086
:10F7700011F081E028C088E926C01A82E1E0F0E0BB
:10F7800089E08093570084918B831C8224E030E0D1
:10F79000C8C18B81803589F48C81883039F4E2E0EE
:10F7A000F0E089E08093570084910DC0E0E0F0E044
:10F7B00089E080935700849106C0E3E0F0E089E09F
:10F7C0008093570084911A82DFCF8D81836C99E0FA
:10F7D000E1E0F0E0082E90935700E89507B600FCB2
:10F7E000FDCF1A821B8223E030E09BC180EC8A832C
:10F7F000CE5CDE4F188219821A821B82C253D1401E
:10F800008EC18A8190E0A0E0B0E0582F44273327D2
:10F8100022278B8190E0A0E0B0E0DC0199278827C7
:10F82000282B392B4A2B5B2B8D8190E0A0E0B0E098
:10F83000282B392B4A2B5B2B8C8190E0A0E0B0E089
:10F84000BA2FA92F982F8827282B392B4A2B5B2BCF
:10F85000220F331F441F551FC05EDE4F288339839C
:10F860004A835B83C052D1401A8259C13A81C95C34
:10F87000DE4F3883C753D140CA5CDE4F1882C6536F
:10F88000D1408B81C82EDD24CA5CDE4F488159816E
:10F89000C653D140C42AD52A933109F082C0CE5C28
:10F8A000DE4F88819981AA81BB81C253D1408050AB
:10F8B000904CA340B04030F583E0CE5CDE4FE88052
:10F8C000F9800A811B81C253D140F70100935B008C
:10F8D00080935700E89507B600FCFDCFCE5CDE4F65
:10F8E000088119812A813B81C253D14000501F4FAA
:10F8F0002F4F3F4FCE5CDE4F088319832A833B8313
:10F90000C253D140C05EDE4F488159816A817B81FC
:10F91000C052D140DE011B9631E08C9111962C91A2
:10F9200011971296C75CDE4F2883C953D140C85C3B
:10F93000DE4F1882C853D14090E0C85CDE4FE881AA
:10F94000F981C853D1408E2B9F2B0C01FA01609393
:10F950005B0030935700E89511244E5F5F4F6F4F67
:10F960007F4F0EEFE02E0FEFF02ECE0CDF1CC114F8
:10F97000D10499F685E0C05EDE4F088119812A81A5
:10F980003B81C052D140F80120935B008093570027
:10F99000E89507B600FCFDCF81E180935700E8951C
:10F9A00035C0C05EDE4F88819981AA81BB81C0527B
:10F9B000D140B695A795979587957C018601ABE0D8
:10F9C000AA2EB12CAC0EBD1E0BC0D5016D915D01F0
:10F9D000C7010F947FFE0894E11CF11C01501040F8
:10F9E0000115110591F7A60160E070E0440F551F65
:10F9F000661F771FC05EDE4FE880F9800A811B8199
:10FA0000C052D1404E0D5F1D601F711F1A82C05E33
:10FA1000DE4F488359836A837B83C052D1407FC0C5
:10FA2000FA80C55CDE4FF882CB53D140C65CDE4F16
:10FA30001882CA53D1408B81C82EDD24C65CDE4FAC
:10FA400008811981CA53D140C02AD12A1A828981DA
:10FA5000BE016D5F7F4F843121F59601C05EDE4FA0
:10FA6000E880F9800A811B81C052D1400BBFF701A9
:10FA700087919691DB018C9311969C936E5F7F4FDB
:10FA8000D801C7010296A11DB11DC05EDE4F88835B
:10FA90009983AA83BB83C052D14022503040F1F6F3
:10FAA00036C0C05EDE4F288139814A815B81C052F9
:10FAB000D1400894C108D108760100E010E0089414
:10FAC000C11CD11C0894E11CF11C011D111DE20E8A
:10FAD000F31E041F151F21BDBB27A52F942F832FB5
:10FAE00082BD2F5F3F4F4F4F5F4FF89A80B5DB01CC
:10FAF0008D93BD012E153F054007510761F7C05E8C
:10FB0000DE4F288339834A835B83C052D1409601FC
:10FB10002D5F3F4FFB01108204C080EC8A8322E0FE
:10FB200030E08BE18093C6008091C00086FFFCCF5F
:10FB30008091C00080648093C000C15DDE4FF88179
:10FB4000CF52D140F093C6008091C00086FFFCCF19
:10FB50008091C00080648093C000432F3093C60022
:10FB60008091C00086FFFCCF8091C00080648093AC
:10FB7000C000922F2093C6008091C00086FFFCCF6A
:10FB80008091C00080648093C0008EE08093C600A6
:10FB90008091C00086FFFCCF8091C000806480937C
:10FBA000C00065E1C15DDE4FE880CF52D1406E25D7
:10FBB00069276427FE01319610C090819093C6009A
:10FBC0008091C00086FFFCCF31968091C000806498
:10FBD0008093C0006927215030402115310569F715
:10FBE0006093C6008091C00086FFFCCF8091C0006A
:10FBF00080648093C00085B1805885B9772081F4F6
:10FC0000C15DDE4F0881CF52D1400F5FC15DDE4F35
:10FC10000883CF52D14090E0A0E0B0E00D941AF4F8
:10FC200027982F9880E090E020ED37E0F901319798
:10FC3000F1F7019684369105C9F700008091C00064
:10FC40008D7F8093C00081E180935700E895EE2777
:10FC5000FF270994FFCF90E00D941AF497FB092E2B
:10FC600007260AD077FD04D02ED006D000201AF443
:10FC7000709561957F4F0895F6F7909581959F4F08
:10FC80000895A1E21A2EAA1BBB1BFD010DC0AA1FDD
:10FC9000BB1FEE1FFF1FA217B307E407F50720F0F5
:10FCA000A21BB30BE40BF50B661F771F881F991F70
:10FCB0001A9469F760957095809590959B01AC01B9
:10FCC000BD01CF010895AA1BBB1B51E107C0AA1FAC
:10FCD000BB1FA617B70710F0A61BB70B881F991FED
:10FCE0005A95A9F780959095BC01CD010895F99991
:10FCF000FECF92BD81BDF89A992780B50895262F31
:10FD0000F999FECF1FBA92BD81BD20BD0FB6F89400
:0EFD1000FA9AF99A0FBE01960895F894FFCF63
:040000033000E000E9
:00000001FF