:1000000024C1000053C1000051C100004FC10000D5
:100010004DC100004BC1000049C1000047C10000B4
:1000200045C1000043C1000041C100003FC10000C4
:100030003DC100003BC1000039C1000037C10000D4
:1000400035C1000033C1000031C100002FC10000E4
:100050002DC100002BC1000029C100000C94B20A80
:1000600025C100000C94E9090C94C0091FC10000CF
:100070001DC100001BC1000019C1000017C1000014
:1000800015C1000013C1000011C100000FC1000024
:100090000DC100000BC1000009C1000007C1000034
:1000A00005C1000003C1000001C10000FFC0000045
:1000B000FDC00000FBC00000F9C00000F7C0000058
:1000C000F5C00000F3C00000F1C00000EFC0000068
:1000D000EDC00000EBC00000E9C00000E7C0000078
:1000E000E5C00000FB01FF01030207020B020F0243
:1000F00013024F0356035D0364036B038303720310
:10010000830379034D0950093F09430949098709C8
:10011000540958095E09620966096C097009740975
:1001200087097A097E09820900002100240027003E
:100130002A002D00300033000101000004010701F6
:100140000A0100002200250028002B002E003100AB
:10015000340002010000050108010B01000020002D
:100160002300260029002C002F003200000100008F
:10017000030106010901050505050705080808082A
:10018000020202020A0A080804040404010101012F
:10019000010101010303030303030303040707072A
:1001A0000C0C0C0C0C0C0C0C0202020206060606CF
:1001B000060606060B0B0B0B0B0B0B0B010210209C
:1001C000200808102040102040800201020108048D
:1001D0000201010204081020408080402010080421
:1001E000020180040201804020100804020108047A
:1001F00002010102040810204080010204081020BE
:10020000408000000A0B02090C0D0E0807030401D0
:1002100000000000000000000000000000000000DE
:1002200000000000000000000000000000001211AB
:1002300010000000000000000000000000000000AE
:100240000000000000000000B60E11241FBECFEF1A
:10025000D1E2DEBFCDBF00E00CBF12E0A0E0B2E013
:10026000E6E6F7E200E00BBF02C007900D92AC3368
:10027000B107D9F728E0ACE3B2E001C01D92AC347D
:10028000B207E1F711E0C5E2D1E000E006C0219736
:100290000109802FFE010E948313C432D10780E040
:1002A0000807A9F70E94390C0C94B113A9CECF927C
:1002B000DF92EF92FF92CF93DF93FC014785508945
:1002C0006189728983859485A585B6854817590704
:1002D0006A077B0711F480E06EC0EF01CD5BDF4F52
:1002E00084179507A607B7071CF481E0888301C02F
:1002F000188283A194A1A5A1B6A1892B8A2B8B2B4F
:1003000051F33FB7F89480913C0290913D02A09147
:100310003E02B0913F0226B5A89B05C02F3F19F0C1
:100320000196A11DB11D3FBFCC24D82EE92EFA2E77
:10033000C20ED11CE11CF11C42E0CC0CDD1CEE1CF9
:10034000FF1C4A95D1F787A190A5A1A5B2A5B70139
:10035000A601481B590B6A0B7B0B83A194A1A5A195
:10036000B6A1481759076A077B0708F4B4CF28815C
:1003700083859485A585B685222321F00196A11D4C
:10038000B11D03C00197A109B10983879487A5878F
:10039000B687EF010190F081E02D4B855C856D857E
:1003A0007E850680F781E02DCE011995CFA2D8A6D3
:1003B000E9A6FAA681E0DF91CF91FF90EF90DF9060
:1003C000CF900895CF93DF93DC01477055276627C0
:1003D0007727FA013197CD91DC911197E730F1053C
:1003E00030F48827EE58FF4F8F4F0C948313EC8125
:1003F000FD8161E01BC0EC81FD8165E017C0EC81EF
:10040000FD8164E013C0EC81FD8166E00FC0EC81EA
:10041000FD8162E00BC0EC81FD816AE007C0EC81E8
:10042000FD8168E003C0EC81FD8169E0CD01DF91D1
:10043000CF911994CF93DF93EC01CB01BA0126E061
:1004400030E040E050E00E946713623071058105A2
:10045000910559F18CF46115710581059105F1F053
:100460006130710581059105C1F5E881F98104804C
:10047000F581E02D65E02DC06430710581059105A1
:1004800011F1D4F0653071058105910531F5E881F0
:10049000F9810480F581E02D66E01BC0E881F981D7
:1004A0000480F581E02D64E014C0E881F9810480C6
:1004B000F581E02D61E00DC0E881F9810480F581CE
:1004C000E02D63E006C0E881F9810480F581E02D2C
:1004D00062E0CE01DF91CF911994DF91CF91089521
:1004E0004370552766277727DC01ED91FC91048046
:1004F000F581E02D423051056105710571F0433001
:1005000051056105710559F04130510561057105CD
:1005100011F065E005C066E003C06AE001C069E073
:100520001994CF93DF93EC01CB01BA0123E030E0C3
:1005300040E050E00E94671361307105810591052C
:1005400081F0623071058105910591F0672B682B70
:10055000692BC1F4E881F9810480F581E02D64E024
:100560000DC0E881F9810480F581E02D61E006C0CD
:10057000E881F9810480F581E02D62E0CE01DF9110
:10058000CF911994DF91CF91089543705527662735
:100590007727DC01ED91FC910480F581E02D42305C
:1005A00051056105710571F0433051056105710513
:1005B00059F0413051056105710511F062E005C047
:1005C00063E003C061E001C060E019940F931F93E2
:1005D000CF93DF93EC01E881F9810480F581E02D70
:1005E0008C010D5B1F4FD8018C91811102C060E01E
:1005F00001C062E0CE011995E881F9810480F5819E
:10060000E02DD8018C91811102C061E001C063E04E
:10061000CE011995EBA5FCA5E230F10538F0EE0FFF
:10062000FF1FEE0FFF1F35973197F1F7E881F98132
:100630000480F581E02DD8018C91811102C060E029
:1006400001C062E0CE01DF91CF911F910F9119940B
:10065000CF93DF93EC0120E030E0A9016B897C8926
:100660008D899E890E94001318161CF4EFA5F8A925
:1006700002C0E9A9FAA9DF91CF9119940F931F93B2
:10068000DC0112960C91129710E009301105D8F593
:10069000F8018827E758FF4F8F4F0C948313ED9193
:1006A000FC9111970084F185E02D29C0ED91FC911A
:1006B00011970284F385E02D22C0ED91FC911197F2
:1006C0000484F585E02D1BC0ED91FC911197068403
:1006D000F785E02D14C0ED91FC9111970088F18908
:1006E000E02D0DC0ED91FC9111970288F389E02D6A
:1006F00006C0ED91FC9111970488F589E02DCD019C
:100700001F910F9119941F910F910895CF93DF932B
:10071000FC012281222329F1EC0161E08381E6D6EC
:1007200061E08C81E3D68A81843011F0883031F425
:1007300061E08D81DBD661E08E8106C0833011F0EF
:10074000863019F461E08D81D1D68EA58F3F49F0B6
:1007500061E0CCD66DA581E068278EA5DF91CF91B1
:1007600096C6DF91CF910895CF93DF93FC0122814C
:10077000222399F0EC010190F081E02D0480F581B5
:10078000E02D60E019958EA58F3F39F061E0AED67F
:100790006DA58EA5DF91CF917AC6DF91CF91089597
:1007A000CF92DF92EF92FF920F931F93CF93DF933D
:1007B000FC012281243041F0283031F0233031F027
:1007C000263021F012E003C014E001C013E0EC0178
:1007D0002796E12CF12CC62ED12C01E0C6010E2C5F
:1007E00002C0959587950A94E2F7688180FD60279D
:1007F000FE01349780814BD6FFEFEF1AFF0A219656
:10080000E11660F3DF91CF911F910F91FF90EF9070
:10081000DF90CF9008950F931F93CF93DF93FC0148
:10082000CB01EB01AC81BD811B964D915D916D912A
:100830007C911E9700891189228933890417150735
:1008400026073707CCF477FD0EC020853185428519
:10085000538560817181828193810E940413AB0171
:10086000BC01CE0104C04081518162817381DF915E
:10087000CF911F910F91C0C680E0DF91CF911F9162
:100880000F9108950F931F93CF93DF93FC01CB013A
:10089000EB01AC81BD811B964D915D916D917C9179
:1008A0001E970089118922893389041715072607A5
:1008B0003707CCF477FD0EC02085318542855385FE
:1008C00064817581868197810E940413AB01BC010C
:1008D000CE0104C04481558166817781DF91CF913B
:1008E0001F910F9189C680E0DF91CF911F910F91E9
:1008F0000895DC015896ED91FC9159970480F5819B
:10090000E02D43875487658776874787508B618BB7
:10091000728B13AA14AA15AA16AA13A214A215A2BE
:1009200016A2138A148A158A168A5A96ED91FC919A
:100930005B970480F581E02D438754876587768730
:100940004787508B618B728B13AA14AA15AA16AA1B
:1009500013A214A215A216A2138A148A158A168A43
:100960005C96ED91FC915D970480F581E02D4387C5
:100970005487658776874787508B618B728B13AA64
:1009800014AA15AA16AA13A214A215A216A2138AB3
:10099000148A158A168A5E96ED91FC915F97048001
:1009A000F581E02D43875487658776874787508B8D
:1009B000618B728B13AA14AA15AA16AA13A214A2E9
:1009C00015A216A2138A148A158A168A0895FC01A4
:1009D000808135D521E0019709F420E0822F089528
:1009E0000F931F93CF93DF93FC01EB01AC81BD818B
:1009F0001B960D911D912D913C911E978485958597
:100A0000A685B785081719072A073B073CF5CA01D1
:100A1000EB018F01DCDF811121C0EC81FD81838539
:100A20009485A585B685B7FD0EC0F8012085318572
:100A30004285538560817181828193810E94041374
:100A4000AB01BC0105C0F801408151816281738115
:100A5000CE01DF91CF911F910F911AC680E0DF91F7
:100A6000CF911F910F9108950F931F93CF93DF9311
:100A7000FC01EB01AC81BD811B960D911D912D9167
:100A80003C911E9784859585A685B785081719071B
:100A90002A073B073CF5CA01EB018F0198DF811162
:100AA00021C0EC81FD8183859485A585B685B7FD40
:100AB0000EC0F8012085318542855385648175819A
:100AC000868197810E940413AB01BC0105C0F80127
:100AD0004481558166817781CE01DF91CF911F914D
:100AE0000F91D6C580E0DF91CF911F910F910895AE
:100AF000FC01862F608360E0F9C44F925F926F9291
:100B00007F92AF92BF92CF92DF92EF92FF920F93BC
:100B10001F93CF93DF93EC015A018B012B893C8902
:100B20004D895E89B501C8010E94B111882309F47D
:100B300051C0CF88D88CE98CFA8C2601370177FA1E
:100B4000709477F87094A3019201B501C8010E94D6
:100B5000B11187FD0BC0A7019601B501C8010E9424
:100B6000001318162CF06501780102C073016201B0
:100B700020E030E0A901C701B6010E94B111811146
:100B800005C01BA21CA21DA21EA220C0A701960187
:100B900060E074E284E799E40E94B5119F770E94B7
:100BA00022126BA37CA38DA39EA35E0183E4A80EF7
:100BB000B11C11E020E030E0A901C701B6010E949C
:100BC000001318160CF010E0F5011083CB8ADC8AB4
:100BD000ED8AFE8ADF91CF911F910F91FF90EF90E8
:100BE000DF90CF90BF90AF907F906F905F904F90CD
:100BF00008952F923F924F925F926F927F928F92C1
:100C00009F92AF92BF92CF92DF92EF92FF920F939B
:100C10001F93CF93DF9300D01F92CDB7DEB71C0197
:100C2000FC0187849088A188B28883859485A585F6
:100C3000B685881A990AAA0ABB0A638974898589C4
:100C400096899B01AC010E9404136B017C01F101A8
:100C5000638D748D858D968D9B01AC010E944D1125
:100C60009B01AC01C701B6010E94B5110E941D1283
:100C700081149104A104B104A1F4623071058105CD
:100C800091050CF07CC0F10113A214A215A216A2CA
:100C9000138A148A158A168A13AA14AA15AA16AAE0
:100CA00003C1F10103A914A925A936A9ED5BFF4FE2
:100CB000181419041A041B04FCF410161106120669
:100CC00013064CF4681579058A059B054CF52081BF
:100CD000211155C025C0011511052105310509F463
:100CE0004EC0681579058A059B050CF048C08081C7
:100CF000882309F444C037C01016110612061306E3
:100D0000F4F4002711279801081919092A093B0949
:100D100060177107820793071CF42081222379F161
:100D20009B01AC0188279927DC01821B930BA40B44
:100D3000B50BF10183AB94ABA5ABB6AB20C00115ED
:100D4000110521053105D9F0CC24DD247601C81820
:100D5000D908EA08FB086C157D058E059F057CF413
:100D6000808181110CC030952095109501951F4F01
:100D70002F4F3F4FF10103AB14AB25AB36ABF10165
:100D8000C3A8D4A8E5A8F6A881010D5B1F4FC11424
:100D9000D104E104F10491F487A990ADA1ADB2AD05
:100DA00083AF94AFA5AFB6AF81E0181419041A044D
:100DB0001B040CF080E0F801808340C0F10183AC9B
:100DC00094ACA5ACB6ACA5019401C501B4010E94D8
:100DD0004D112B013C01C701B6010E94501220E0C9
:100DE00030E040E850E40E94041320E030E040E8A6
:100DF0005FE30E944D119B01AC01C301B2010E944F
:100E0000B5119B01AC01C501B4010E944C114B010D
:100E10005C01F101FF9640805180628073809201F5
:100E2000A3010E940013181614F042015301A401FB
:100E3000B501F10143AF54AF65AF76AFFFEFCF1A05
:100E4000DF0AEF0AFF0AF101C3AAD4AAE5AAF6AAAB
:100E500023AD34AD45AD56ADCA01B90129833A83FE
:100E60004B835C830E942212F10163A374A385A3C8
:100E700096A329813A814B815C8160E074E284E72A
:100E800099E40E94B511F101638B748B858B968B6D
:100E9000F8012081211108C0DC01CB01B058F1011B
:100EA000838B948BA58BB68B0F900F900F900F9028
:100EB000DF91CF911F910F91FF90EF90DF90CF9036
:100EC000BF90AF909F908F907F906F905F904F906A
:100ED0003F902F900895CF92DF92EF92FF920F9361
:100EE000CF93DF93EC0184E092E0998388836A8357
:100EF0001B861C861D861E861F86188A198A1A8ADA
:100F00001B8A1C8A1D8A1E8A80E090E0A0E8BFE34D
:100F10008F8B988FA98FBA8F1B8E1C8E1D8E1E8E65
:100F20008F8F98A3A9A3BAA31BA21CA21DA21EA2C5
:100F300061E070E07CA76BA73FEF3EA71FA218A659
:100F400019A61AA64B832C830D83EE821BAA1CAA1A
:100F50001DAA1EAA1FAA18AE19AE1AAE1BAE1CAE51
:100F60001DAE1EAEFE01FF9680839183A283B383E4
:100F7000349610821F82188619861A86CC2011F0AA
:100F8000CE01C4DBCB8CDC8CED8CFE8C20E030E021
:100F900040E85FE3C701B6010E94B111882349F11F
:100FA0006BA97CA98DA99EA90E945012A701960148
:100FB0000E9404130E941D126BAB7CAB8DAB9EABE9
:100FC00086E896E6A9E6B9E48FAB98AFA9AFBAAFC9
:100FD00080E090E0A0E8BFE38B8F9C8FAD8FBE8F49
:100FE000CE01DF91CF910F91FF90EF90DF90CF90E6
:100FF00000CEDF91CF910F91FF90EF90DF90CF90D7
:1010000008950F931F93CF93DF9302E212E0F8014C
:10101000C191D1918F01E88DF98D8481958147D956
:10102000EA8DFB8D8481958142D9EC8DFD8D848183
:1010300095813DD9EE8DFF8D8481958138D9F2E07F
:101040000A321F0721F7DF91CF911F910F91089569
:10105000089580E090E00895FC01538D448D252F84
:1010600030E0842F90E0821B930B541710F0CF9642
:10107000089501970895FC01918D828D981761F074
:10108000828DDF01A80FB11D5D968C91928D9F5FBF
:101090009F73928F90E008958FEF9FEF0895FC016A
:1010A000918D828D981731F0828DE80FF11D858D1D
:1010B00090E008958FEF9FEF0895FC01918D228DB0
:1010C000892F90E0805C9F4F821B91098F73992735
:1010D000089589E492E0F1DF21E0892B09F420E012
:1010E000822F0895FC01848DDF01A80FB11DA35A42
:1010F000BF4F2C91848D90E001968F739927848F38
:10110000A689B7892C93A089B1898C9180648C932E
:10111000938D848D981306C00288F389E02D808119
:101120008F7D80830895EF92FF920F931F93CF934B
:10113000DF93EC0181E0888F9B8D8C8D981305C027
:10114000E889F989808185FD23C0F62E0B8D10E09A
:101150000F5F1F4F0F731127E02E8C8DE8120BC00D
:101160000FB607FCFACFE889F989808185FFF5CFB2
:10117000CE01B8DFF2CF8B8DFE01E80FF11DE35AEF
:10118000FF4FF0820B8FEA89FB898081806207C064
:10119000EE89FF896083E889F98980818064808392
:1011A00081E090E0DF91CF911F910F91FF90EF9040
:1011B0000895CF93DF93EC01888D8823C1F0EA89ED
:1011C000FB89808185FD05C0A889B9898C9186FD40
:1011D0000EC00FB607FCF5CF808185FFF2CFA8893E
:1011E000B9898C9185FFEDCFCE017CDFE8CFDF910F
:1011F000CF91089580E090E0892B19F06ADF81118A
:1012000025C080E090E0892B41F080E090E0892BC0
:1012100021F00E94000081111CC080E090E0892B29
:1012200041F080E090E0892B21F00E9400008111C4
:1012300013C080E090E0892BA1F080E090E0892B42
:1012400081F00E94000081110AC008950E940000F0
:10125000D8CF0E940000E1CF0E940000EACF0C949A
:101260000000089590E0FC013197E231F10508F0AB
:101270004EC08827EE57FF4F8F4F0C9483138091F9
:1012800080008F7703C0809180008F7D80938000E5
:10129000089580918000877FF9CF84B58F7702C051
:1012A00084B58F7D84BD08958091B0008F7703C091
:1012B0008091B0008F7D8093B00008958091900060
:1012C0008F7707C0809190008F7D03C08091900040
:1012D000877F8093900008958091A0008F7707C04A
:1012E0008091A0008F7D03C08091A000877F8093B4
:1012F000A0000895809120018F7707C08091200180
:101300008F7D03C080912001877F80932001089505
:10131000863308F0865390917B00282F2870977FA2
:10132000922B90937B008770806480937C008091E7
:101330007A00806480937A0080917A0086FDFCCFE9
:10134000809178002091790090E0922B08950F937E
:101350001F93DC011496ED91FC91159781E00785B0
:1013600010892189328943855485658576850417DE
:1013700015072607370709F480E01F910F9108959C
:101380001F920F920FB60F9211240BB60F922F934C
:101390003F934F935F936F937F938F939F93AF93FD
:1013A000BF93EF93FF9389E492E09CDEFF91EF916E
:1013B000BF91AF919F918F917F916F915F914F916D
:1013C0003F912F910F900BBE0F900FBE0F901F906B
:1013D00018951F920F920FB60F9211240BB60F9211
:1013E0002F938F939F93EF93FF93E0915902F09186
:1013F0005A028081E0915F02F091600282FD12C08A
:101400009081809162028F5F8F73209163028217B7
:1014100051F0E0916202F0E0E75BFD4F958F809321
:10142000620201C08081FF91EF919F918F912F9176
:101430000F900BBE0F900FBE0F901F901895CF937B
:10144000DF93282F30E0F901EE5FFD4F8491F90121
:10145000E454FE4FD491F901EA58FE4FC491CC23D5
:1014600089F08111FFDEEC2FF0E0EE0FFF1FE45A50
:10147000FE4FA591B491EC91ED2381E090E021F431
:1014800080E002C080E090E0DF91CF9108951F934B
:10149000CF93DF93282F30E0F901EE5FFD4F849169
:1014A000F901E454FE4FD491F901EA58FE4FC4917A
:1014B000CC23C1F0162F8111D5DEEC2FF0E0EE0F1A
:1014C000FF1FEE5BFE4FA591B4918FB7F8941111F9
:1014D00005C09C91ED2FE095E92302C0EC91ED2B26
:1014E000EC938FBFDF91CF911F910895CF93DF933E
:1014F00090E0FC01E454FE4F2491FC01EA58FE4FB9
:101500008491882361F190E0880F991FFC01E85DC8
:10151000FE4FC591D491FC01EE5BFE4FA591B491B5
:10152000611109C09FB7F894888120958223888330
:10153000EC912E230BC0623061F49FB7F894388190
:10154000822F809583238883EC912E2B2C939FBF31
:1015500006C08FB7F894E8812E2B28838FBFDF91C8
:10156000CF9108951F920F920FB60F9211242F93CF
:101570003F938F939F93AF93BF938091410290913C
:101580004202A0914302B09144023091400223E014
:10159000230F2D3720F40196A11DB11D05C026E8AB
:1015A000230F0296A11DB11D20934002809341029A
:1015B00090934202A0934302B093440280913C0274
:1015C00090913D02A0913E02B0913F020196A11D73
:1015D000B11D80933C0290933D02A0933E02B093D4
:1015E0003F02BF91AF919F918F913F912F910F90AB
:1015F0000FBE0F901F901895EF92FF920F931F93BD
:10160000CF93DF9300D01F92CDB7DEB77C01498323
:101610005A836B837C839BDE49815A816B817C81F9
:1016200081112AC0D7011496ED91FC91159703857D
:1016300014852585368501501109210931098785D1
:101640009089A189B28980179107A207B30771F029
:101650000787108B218B328BCF0149835A836B8391
:101660007C83C7DA7C816B815A814981F70184814F
:10167000958143DA81E001C080E00F900F900F90D8
:101680000F90DF91CF911F910F91FF90EF900895F0
:10169000EF92FF920F931F93CF93DF9300D01F928F
:1016A000CDB7DEB77C0149835A836B837C834FDEE1
:1016B00049815A816B817C8181112AC0D70114969E
:1016C000ED91FC91159703851485258536850F5F6F
:1016D0001F4F2F4F3F4F87859089A189B28980176F
:1016E0009107A207B30771F00787108B218B328B0C
:1016F000CF0149835A836B837C837BDA7C816B8146
:101700005A814981F70184819581F7D981E001C02F
:1017100080E00F900F900F900F90DF91CF911F916D
:101720000F91FF90EF900895CF92DF92EF92FF928A
:101730000F931F93CF93DF938C01EB01C12C80E8B3
:10174000D82E8BE3E82E84E4F82ED801CD92DD92DA
:10175000ED92FC92139715967C936E931497A701C4
:1017600096016F89788D898D9A8DFBD5882399F1A3
:10177000CF8AD88EE98EFA8E8BEA9AEAA6EAB4E48A
:10178000FE01FF9680839183A283B3838BA99CA9DA
:10179000ADA9BEA9181619061A061B06E4F46B8932
:1017A0007C898D899E899B01AC012ED76B017C01C0
:1017B0006B8D7C8D8D8D9E8D9B01AC016ED59B01BB
:1017C000AC01C701B601D1D538D66BAB7CAB8DABC4
:1017D0009EABCE010EDAD8011496ED91FC911597CF
:1017E00013861486158616861786108A118A128A21
:1017F00013AA14AA15AA16AA13A214A215A216A215
:10180000138A148A158A168ADF91CF911F910F913E
:10181000FF90EF90DF90CF900895CF92DF92EF92FC
:10182000FF920F931F93CF93DF936C017A018B018B
:10183000C0E0D0E0CE15DF0589F0D8016D918D01B3
:10184000D601ED91FC910190F081E02DC601199532
:10185000892B11F47E0102C02196ECCFC701DF91E4
:10186000CF911F910F91FF90EF90DF90CF9008954F
:1018700074D7789484B5826084BD84B5816084BD5A
:1018800085B5826085BD85B5816085BD80916E001E
:10189000816080936E00109281008091810082604F
:1018A000809381008091810081608093810080918C
:1018B00080008160809380008091B100846080937B
:1018C000B1008091B00081608093B0008091910060
:1018D000826080939100809191008160809391005B
:1018E000809190008160809390008091A10082603F
:1018F0008093A1008091A10081608093A1008091DC
:10190000A00081608093A00080912101826080937B
:10191000210180912101816080932101809120012A
:1019200081608093200180917A00846080937A00A6
:1019300080917A00826080937A0080917A00816041
:1019400080937A0080917A00806880937A00109268
:10195000C100E0915902F0915A0282E08083E09147
:101960005502F09156021082E0915702F091580210
:101970008FEC808310926102E0915D02F0915E0233
:1019800086E08083E0915B02F0915C02808180615F
:101990008083E0915B02F0915C02808188608083AB
:1019A000E0915B02F0915C02808180688083E0912D
:1019B0005B02F0915C0280818F7D8083FF24F39431
:1019C00080914702811134C18091460281114EC03D
:1019D00002E212E06801D601CD91DD916D0188A18E
:1019E00099A10E94E7048823D1F08AA19BA10E94BB
:1019F000E7048823A1F08CA19DA10E94E70488231D
:101A000071F08EA19FA10E94E704882341F0BAE201
:101A1000CB16B2E0DB06F9F6F09246026FC0F80191
:101A2000C191D1918F014FEF5FEFBA01CE010E94BA
:101A3000790448A159A1688D798DCE0115D84AA1A4
:101A40005BA16A8D7B8DCE010FD84CA15DA16C8D01
:101A50007D8DCE0109D84EA15FA16E8D7F8DCE0107
:101A600003D8F2E00A321F07D1F648C08091450240
:101A7000811142C002E212E0E80189919991DC01F2
:101A800054968D909D90AD90BC9057971C964D911B
:101A90005D916D917C911F9784169506A606B706F9
:101AA000ACF040E050E0BA010E947904B2E0CA32E2
:101AB000DB0719F7F092450221C08A8D9B8D47DC28
:101AC000882371F0F2E00A321F07C1F0F801C191DA
:101AD000D1918F01888D998D3ADC8111F3CFEDCFB3
:101AE0008C8D9D8D34DC8111EDCF8E8D9F8D2FDC03
:101AF000882309F415C1E6CFF092470282DA60CF5D
:101B0000D801ED91FD918D01808199DC892B11F037
:101B1000C0934802CF5FC43099F780919403F8DBFB
:101B2000EC0180919603F4DBFC0140918E0350910F
:101B30008F036091920370919303CA01861B970BE8
:101B4000C817D90708F478C0209190033091910309
:101B5000DA01A21BB30BCA17DB0708F470C0DB0164
:101B6000A40FB51FAC17BD0708F46CC0240F351FB8
:101B7000A1E0B0E02C173D0710F0A0E0B0E0222774
:101B800033272A1B3B0B3093990320939803E817C4
:101B9000F90708F45AC08091900390919103DA01FB
:101BA000A81BB90BEA17FB0708F451C0640F751F97
:101BB0006E177F0708F44EC0480F591F61E090E090
:101BC0004E175F0708F060E0462F892F40939A0375
:101BD00080939B03E0914802F0E0EE0FFF1FEE5D63
:101BE000FD4FC081D18122303105B9F56A8D7B8DE1
:101BF000CE010E9442044EA15FA16E8D7F8DCE0169
:101C00000E94340580919A0390919B038230910544
:101C100009F055C0688D798DCE010E9442044CA117
:101C20005DA16C8D7D8DCE010E943405EAD9E2DA8A
:101C30000AE112E0C0E064CF22E030E0A4CF21E06E
:101C400030E0A1CF2EEF3FEF9ECF4EEF01C04FEF20
:101C50008FEFBCCF42E080E0B9CF2130310569F48D
:101C60006A8D7B8DCE010E940B044EA15FA16E8D0B
:101C70007F8DCE010E94F004C5CF2E3FBFEF3B0702
:101C800069F44AA15BA16A8D7B8DCE010E94340567
:101C90006E8D7F8DCE010E944204B4CF2F3F3F4F07
:101CA00009F0B0CF4AA15BA16A8D7B8DCE010E9465
:101CB000F0046E8D7F8DCE010E940B04A3CF813086
:101CC000910569F4688D798DCE010E940B044CA1B9
:101CD0005DA16C8D7D8DCE010E94F004A7CF8E3F5B
:101CE000FFEF9F0769F448A159A1688D798DCE0156
:101CF0000E9434056C8D7D8DCE010E94420496CFEA
:101D0000019609F093CF48A159A1688D798DCE0134
:101D10000E94F0046C8D7D8DCE010E940B0486CF55
:101D20004FEF5FEFBA01CE010E947904688D798D83
:101D3000CE010E9442046A8D7B8DCE010E94420436
:101D40006C8D7D8DCE010E9442046E8D7F8DCE0103
:101D50000E9442048C899D89AE89BF890196A11D8C
:101D6000B11D8C8B9D8BAE8BBF8BACCE8F929F9217
:101D7000AF92BF92CF92DF92EF92FF920F931F9399
:101D8000CF93DF93E9E4F2E01382128288EE93E0CE
:101D9000A0E0B0E084839583A683B7838EE292E0CF
:101DA0009183808385EC90E09587848784EC90E034
:101DB0009787868780EC90E0918B808B81EC90E018
:101DC000938B828B82EC90E0958B848B86EC90E0F9
:101DD000978B868B118E128E138E148EEEE8F3E0A5
:101DE00088E092E09183808384E190E09383828312
:101DF0008CE291E09583848313861286158614867F
:101E00008EE390E0978386838FE390E091878087CD
:101E100060E08EE36BDB60E08FE368DB89E390E0FA
:101E200090938D0380938C0360E060DB88E390E007
:101E300090938B0380938A0360E058DB87E390E004
:101E4000909389038093880360E050DB86E390E001
:101E5000909387038093860360E048DBCC24C3948F
:101E600085E0E82E04E02AE14CE161E088E098E0BA
:101E700032D868E078E082E098E056DC65E181E005
:101E800098E00E9478052BE24DE261E08DEB97E04F
:101E900022D86DEB77E087EB97E046DC64E186EBD8
:101EA00097E00E9478052FE141E261E082E797E048
:101EB00012D862E777E08CE697E036DC63E18BE6E8
:101EC00097E00E94780523E245E261E087E297E02F
:101ED00002D867E277E081E297E026DC62E180E207
:101EE00097E00E94780527E249E261E08CED96E0F8
:101EF0000E946B076CED76E086ED96E015DC61E103
:101F000085ED96E00E9478052EE140E261E081E9EE
:101F100096E00E946B0761E976E08BE896E004DCCE
:101F200060E08AE896E00E94780522E344E361E0FD
:101F300086E496E00E946B0766E476E080E496E033
:101F4000F3DB6FE08FE396E00E94780522E244E243
:101F500061E08BEF95E00E946B076BEF75E085EF1A
:101F600095E0E2DB6EE084EF95E00E94780527E1E2
:101F700049E161E080EB95E00E946B0760EB75E062
:101F80008AEA95E0D1DB61E089EA95E00E94780574
:101F90002AE24CE261E085E695E00E946B0765E687
:101FA00075E08FE595E0C0DB60E18EE595E00E948D
:101FB000780526E248E261E08AE195E00E946B073D
:101FC0006AE175E084E195E0AFDB62E083E195E0F2
:101FD0000E9478052EE240E361E08FEC94E00E94DD
:101FE0006B076FEC74E089EC94E09EDB63E088ECB7
:101FF00094E00E9478052FE241E361E084E894E0F8
:102000000E946B0764E874E08EE794E08DDB64E087
:102010008DE794E00E94780523E345E361E089E3DE
:1020200094E00E946B0769E374E083E394E07CDB57
:1020300065E082E394E00E9478052BE14DE161E0E8
:102040008EEE93E00E946B076EEE73E088EE93E0F5
:102050006BDB66E087EE93E00E94780526E148E1BD
:1020600061E083EA93E00E946B0763EA73E08DE925
:1020700093E05ADB67E08CE993E00E947805EEE597
:10208000F3E0812C912C9AE7A92E93E4B92E80825B
:102090009182A282B382C12CD12C2AEFE22E23E4BA
:1020A000F22EC482D582E682F78200E010E020EAB8
:1020B0003FE3008711872287338740E456E060E0E2
:1020C00070E0448755876687778780E09BEFAFEFA6
:1020D000BFEF808B918BA28BB38B148A158A168AE3
:1020E000178AC2E0D8E0D18FC08FC7EBD7E0D38F7B
:1020F000C28FCCE6D7E0D58FC48FC1E2D7E0D78FAF
:10210000C68FC1E0D8E0D1A3C0A3C6EBD7E0D3A36C
:10211000C2A3CBE6D7E0D5A3C4A3C0E2D7E0D7A340
:10212000C6A3E6E3F3E080829182A282B382C482F6
:10213000D582E682F782008711872287338744871A
:10214000558766877787808B918BA28BB38B148A98
:10215000158A168A178AC6EDD6E0D18FC08FCBE8D4
:10216000D6E0D38FC28FC0E4D6E0D58FC48FC5EF41
:10217000D5E0D78FC68FC5EDD6E0D1A3C0A3CAE8FE
:10218000D6E0D3A3C2A3CFE3D6E0D5A3C4A3C4EFC4
:10219000D5E0D7A3C6A3EEE0F3E080829182A282CD
:1021A000B382C482D582E682F782008711872287B4
:1021B00033874487558766877787808B918BA28B7F
:1021C000B38B148A158A168A178ACAEAD5E0D18F8A
:1021D000C08FCFE5D5E0D38FC28FC4E1D5E0D58FD6
:1021E000C48FC9ECD4E0D78FC68FC9EAD5E0D1A39C
:1021F000C0A3CEE5D5E0D3A3C2A3C3E1D5E0D5A368
:10220000C4A3C8ECD4E0D7A3C6A3E6EEF2E0808274
:102210009182A282B382C482D582E682F78200874D
:102220001187228733874487558766877787808B16
:10223000918BA28BB38B148A158A168A178A8EE724
:1022400094E0918F808F83E394E0938F828F88EE68
:1022500093E0958F848F8DE993E0978F868F8DE73C
:1022600094E091A380A382E394E093A382A387EEFA
:1022700093E095A384A38CE993E097A386A3DF91D1
:10228000CF911F910F91FF90EF90DF90CF90BF9073
:10229000AF909F908F9008955058BB27AA270ED0DB
:1022A00075C166D130F06BD120F031F49F3F11F44D
:1022B0001EF45BC10EF4E095E7FB51C1E92F77D125
:1022C00080F3BA17620773078407950718F071F453
:1022D0009EF58FC10EF4E0950B2EBA2FA02D0B01A9
:1022E000B90190010C01CA01A0011124FF27591B5B
:1022F00099F0593F50F4503E68F11A16F040A22F61
:10230000232F342F4427585FF3CF469537952795D1
:10231000A795F0405395C9F77EF41F16BA0B620BD0
:10232000730B840BBAF09150A1F0FF0FBB1F661F17
:10233000771F881FC2F70EC0BA0F621F731F841F5A
:1023400048F4879577956795B795F7959E3F08F080
:10235000B3CF9395880F08F09927EE0F979587953F
:102360000895D9D008F481E008950CD00FC107D1A9
:1023700040F0FED030F021F45F3F19F0F0C0511171
:1023800039C1F3C014D198F39923C9F35523B1F39C
:10239000951B550BBB27AA2762177307840738F0D4
:1023A0009F5F5F4F220F331F441FAA1FA9F333D033
:1023B0000E2E3AF0E0E830D091505040E695001CE7
:1023C000CAF729D0FE2F27D0660F771F881FBB1FA3
:1023D000261737074807AB07B0E809F0BB0B802D7D
:1023E000BF01FF2793585F4F2AF09E3F510568F0C9
:1023F000B6C000C15F3FECF3983EDCF3869577955D
:102400006795B795F7959F5FC9F7880F911D9695CA
:10241000879597F90895E1E0660F771F881FBB1F26
:10242000621773078407BA0720F0621B730B840BD3
:10243000BA0BEE1F88F7E095089504D06894B111A7
:10244000D9C00895BCD088F09F5790F0B92F992734
:10245000B751A0F0D1F0660F771F881F991F1AF0AF
:10246000BA95C9F712C0B13081F0C3D0B1E0089578
:10247000C0C0672F782F8827B85F39F0B93FCCF3F9
:10248000869577956795B395D9F73EF490958095A5
:10249000709561957F4F8F4F9F4F0895E89409C0C5
:1024A00097FB3EF490958095709561957F4F8F4F87
:1024B0009F4F9923A9F0F92F96E9BB279395F6959D
:1024C000879577956795B795F111F8CFFAF4BB0F1B
:1024D00011F460FF1BC06F5F7F4F8F4F9F4F16C07F
:1024E000882311F096E911C0772321F09EE8872F09
:1024F000762F05C0662371F096E8862F70E060E0C5
:102500002AF09A95660F771F881FDAF7880F96953D
:10251000879597F90895990F0008550FAA0BE0E8E1
:10252000FEEF16161706E807F907C0F01216130695
:10253000E407F50798F0621B730B840B950B39F4D5
:102540000A2661F0232B242B252B21F408950A263B
:1025500009F4A140A6958FEF811D811D089597F97B
:102560009F6780E870E060E008959FEF80EC089539
:1025700000240A9416161706180609060895002462
:102580000A9412161306140605060895092E0394DC
:10259000000C11F4882352F0BB0F40F4BF2B11F450
:1025A00060FF04C06F5F7F4F8F4F9F4F089557FDAF
:1025B0009058440F551F59F05F3F71F04795880FB1
:1025C00097FB991F61F09F3F79F087950895121648
:1025D00013061406551FF2CF4695F1DF08C01616F4
:1025E00017061806991FF1CF8695710561050894A5
:1025F0000895E894BB2766277727CB0197F90895BC
:102600008ADF08F48FEF08950BD0C0CFB1DF28F038
:10261000B6DF18F0952309F0A2CFA7CF1124EACF97
:10262000C6DFA0F3959FD1F3950F50E0551F629F31
:10263000F001729FBB27F00DB11D639FAA27F00D1B
:10264000B11DAA1F649F6627B00DA11D661F829F42
:102650002227B00DA11D621F739FB00DA11D621F27
:10266000839FA00D611D221F749F3327A00D611D44
:10267000231F849F600D211D822F762F6A2F112426
:102680009F5750408AF0E1F088234AF0EE0FFF1F79
:10269000BB1F661F771F881F91505040A9F79E3FB0
:1026A000510570F05CCFA6CF5F3FECF3983EDCF3B2
:1026B000869577956795B795F795E7959F5FC1F7ED
:1026C000FE2B880F911D9695879597F90895052EF5
:1026D00097FB16F400940FD057FD05D01CD007FCD3
:1026E00002D046F408C050954095309521953F4F53
:1026F0004F4F5F4F089590958095709561957F4FEE
:102700008F4F9F4F0895EE0FFF1F881F8BBF0790BD
:10271000F691E02D1994A1E21A2EAA1BBB1BFD0114
:102720000DC0AA1FBB1FEE1FFF1FA217B307E407B0
:10273000F50720F0A21BB30BE40BF50B661F771F08
:10274000881F991F1A9469F76095709580959095E8
:102750009B01AC01BD01CF01089581E090E0F894A8
:0627600000C0F894FFCF59
:1027660000000000B4038603D0033E032803E602FC
:10277600C502910270021A02E2018C038A038803E1
:1027860086035E0336030E03E6020000000093088C
:0C2796000D0C2C08D9085D083B084F080A
:00000001FF
