:1000000017C1000046C1000044C1000042C1000009
:1000100040C100003EC100003CC100003AC10000E8
:1000200038C1000036C1000034C1000032C10000F8
:1000300030C100002EC100002CC100002AC1000008
:1000400028C1000026C1000024C1000022C1000018
:1000500020C100001EC100001CC100000C94A408B7
:1000600018C10000B5C700008AC7000012C1000017
:1000700010C100000EC100000CC100000AC1000048
:1000800008C1000006C1000004C1000002C1000058
:1000900000C10000FEC00000FCC00000FAC000006B
:1000A000F8C00000F6C00000F4C00000F2C000007C
:1000B000F0C00000EEC00000ECC00000EAC000008C
:1000C000E8C00000E6C00000E4C00000E2C000009C
:1000D000E0C00000DEC00000DCC00000DAC00000AC
:1000E000D8C0000070027302620266026A02AA02AD
:1000F00077027B028102850289028F0293029702B6
:10010000AA029D02A102A502F203F603FA03FE036E
:10011000020406040A04810588058F0596059D05DD
:10012000B505A405B505AB05000021002400270096
:100130002A002D00300033000101000004010701F6
:100140000A0100002200250028002B002E003100AB
:10015000340002010000050108010B010505050539
:10016000070508080808020202020A0A080804042F
:10017000040401010101010101010303030303035D
:100180000303040707070C0C0C0C0C0C0C0C0202EC
:10019000020206060606060606060B0B0B0B0B0BE9
:1001A0000B0B010210202008081020401020408076
:1001B000020102010804020101020408102040802B
:1001C00080402010080402018004020180402010B9
:1001D0000804020108040201010204081020408002
:1001E000010204081020408000000A0B02090C0DD7
:1001F0000E080703040100000000000000000000DA
:1002000000000000000000000000000000000000EE
:1002100000000000121110000000000000000000AB
:100220000000000000000000000000000000EB0BD8
:1002300011241FBECFEFD1E2DEBFCDBF00E00CBF67
:1002400012E0A0E0B2E0E4E9FFE100E00BBF02C091
:1002500007900D92AA32B107D9F727E0AAE2B2E0DF
:1002600001C01D92A63CB207E1F711E0C8E1D1E060
:1002700000E006C021970109802FFE010E949A0F1D
:10028000C731D10780E00807A9F70E942A0A0C9419
:10029000C80FB6CEFC01918D828D981761F0828DCA
:1002A000DF01A80FB11D5D968C91928D9F5F9F73AA
:1002B000928F90E008958FEF9FEF0895FC01918D4C
:1002C000828D981731F0828DE80FF11D858D90E0B9
:1002D00008958FEF9FEF0895FC01918D228D892F56
:1002E00090E0805C9F4F821B91098F73992708953E
:1002F00083E392E0F1DF21E0892B09F420E0822FF3
:100300000895FC01848DDF01A80FB11DA35ABF4FD2
:100310002C91848D90E001968F739927848FA68904
:10032000B7892C93A089B1898C9180648C93938D2B
:10033000848D981306C00288F389E02D80818F7D1B
:1003400080830895EF92FF920F931F93CF93DF93D3
:10035000EC0181E0888F9B8D8C8D981305C0E88916
:10036000F989808185FD23C0F62E0B8D10E00F5F8B
:100370001F4F0F731127E02E8C8DE8120BC00FB6A4
:1003800007FCFACFE889F989808185FFF5CFCE0196
:10039000B8DFF2CF8B8DFE01E80FF11DE35AFF4F5E
:1003A000F0820B8FEA89FB898081806207C0EE8929
:1003B000FF896083E889F98980818064808381E096
:1003C00090E0DF91CF911F910F91FF90EF900895F2
:1003D000CF93DF93EC01888D8823C1F0EA89FB89F4
:1003E000808185FD05C0A889B9898C9186FD0EC0E4
:1003F0000FB607FCF5CF808185FFF2CFA889B989B8
:100400008C9185FFEDCFCE017CDFE8CFDF91CF91DE
:10041000089580E090E0892B19F06ADF811125C0F2
:1004200080E090E0892B41F080E090E0892B21F082
:100430000E94000081111CC080E090E0892B41F0F7
:1004400080E090E0892B21F00E940000811113C010
:1004500080E090E0892BA1F080E090E0892B81F092
:100460000E94000081110AC008950E940000D8CFA8
:100470000E940000E1CF0E940000EACF0C9400002F
:100480000895362F90E0FC01E851FE4F4491FC01A5
:10049000EE55FE4F2491FC01E45AFE4F94919923AE
:1004A00009F46BC0442309F455C050E0FA013197B8
:1004B000E231F10508F04EC08827EE58FF4F8F4F0C
:1004C0000C949A0F809180008F7707C080918000F4
:1004D0008F7D03C080918000877F809380003AC029
:1004E00084B58F7702C084B58F7D84BD33C0809181
:1004F000B0008F7703C08091B0008F7D8093B000F3
:1005000029C0809190008F7707C0809190008F7DE7
:1005100003C080919000877F809390001BC08091E2
:10052000A0008F7707C08091A0008F7D03C08091CD
:10053000A000877F8093A0000DC0809120018F775D
:1005400007C0809120018F7D03C080912001877FAB
:1005500080932001E92FF0E0EE0FFF1FEE5BFE4FCE
:10056000A591B4918FB7F894EC91311103C0209507
:100570002E2301C02E2B2C938FBF0895863308F0B5
:10058000865390917B00282F2870977F922B909311
:100590007B008770806480937C0080917A00806407
:1005A00080937A0080917A0086FDFCCF809178005C
:1005B0002091790090E0922B08954F925F926F9274
:1005C0007F92AF92BF92CF92DF92EF92FF920F9302
:1005D0001F93CF93DF93EC015A018B01CF88D88C06
:1005E000E98CFA8C2601370177FA709477F87094C9
:1005F000A3019201B501C8010E94C80D87FD0BC07F
:10060000A7019601B501C8010E94170F18162CF01A
:100610006501780102C07301620120E030E0A901A8
:10062000C701B6010E94C80D811105C01BA21CA202
:100630001DA21EA220C0A701960160E074E284E71B
:1006400099E40E94CC0D9F770E94390E6BA37CA386
:100650008DA39EA35E0183E4A80EB11C11E020E0EF
:1006600030E0A901C701B6010E94170F18160CF05F
:1006700010E0F5011083CB8ADC8AED8AFE8ADF91D7
:10068000CF911F910F91FF90EF90DF90CF90BF908F
:10069000AF907F906F905F904F900895CF92DF92D0
:1006A000EF92FF92CF93DF93FC01478550896189D8
:1006B000728983859485A585B685481759076A0789
:1006C0007B0711F480E06EC0EF01CD5BDF4F841734
:1006D0009507A607B7071CF481E0888301C018823C
:1006E00083A194A1A5A1B6A1892B8A2B8B2B51F3B1
:1006F0003FB7F89480912A0290912B02A0912C028E
:10070000B0912D0226B5A89B05C02F3F19F0019688
:10071000A11DB11D3FBFCC24D82EE92EFA2EC20E4A
:10072000D11CE11CF11C42E0CC0CDD1CEE1CFF1CBA
:100730004A95D1F787A190A5A1A5B2A5B701A601B9
:10074000481B590B6A0B7B0B83A194A1A5A1B6A1F1
:10075000481759076A077B0708F4B4CF28818385B7
:100760009485A585B685222321F00196A11DB11D92
:1007700003C00197A109B10983879487A587B6872C
:10078000EF010190F081E02D4B855C856D857E85C4
:100790000680F781E02DCE011995CFA2D8A6E9A653
:1007A000FAA681E0DF91CF91FF90EF90DF90CF909C
:1007B0000895CF93DF93DC0147705527662777278D
:1007C000FA013197CD91DC911197E730F10530F4C2
:1007D0008827EC57FF4F8F4F0C949A0FEC81FD81C7
:1007E00061E01BC0EC81FD8165E017C0EC81FD81FB
:1007F00064E013C0EC81FD8166E00FC0EC81FD81F7
:1008000062E00BC0EC81FD816AE007C0EC81FD81F4
:1008100068E003C0EC81FD8169E0CD01DF91CF91FB
:100820001994CF93DF93EC01CB01BA0126E030E0BD
:1008300040E050E00E947E0F623071058105910515
:1008400059F18CF46115710581059105F1F0613064
:10085000710581059105C1F5E881F9810480F58173
:10086000E02D65E02DC0643071058105910511F121
:10087000D4F0653071058105910531F5E881F98184
:100880000480F581E02D66E01BC0E881F9810480D9
:10089000F581E02D64E014C0E881F9810480F581E0
:1008A000E02D61E00DC0E881F9810480F581E02D43
:1008B00063E006C0E881F9810480F581E02D62E003
:1008C000CE01DF91CF911994DF91CF9108954370BC
:1008D000552766277727DC01ED91FC910480F5818F
:1008E000E02D423051056105710571F0433051052D
:1008F0006105710559F0413051056105710511F02F
:1009000065E005C066E003C06AE001C069E01994D3
:10091000CF93DF93EC01CB01BA0123E030E040E05C
:1009200050E00E947E0F613071058105910581F0D4
:10093000623071058105910591F0672B682B692B59
:10094000C1F4E881F9810480F581E02D64E00DC0F7
:10095000E881F9810480F581E02D61E006C0E8813D
:10096000F9810480F581E02D62E0CE01DF91CF9125
:100970001994DF91CF910895437055276627772703
:10098000DC01ED91FC910480F581E02D42305105B0
:100990006105710571F0433051056105710559F02C
:1009A000413051056105710511F062E005C063E059
:1009B00003C061E001C060E019940F931F93CF93CF
:1009C000DF93EC01E881F9810480F581E02D8C0151
:1009D0000D5B1F4FD8018C91811102C060E001C0F6
:1009E00062E0CE011995E881F9810480F581E02D5E
:1009F000D8018C91811102C061E001C063E0CE0199
:100A00001995EBA5FCA5E230F10538F0EE0FFF1FBC
:100A1000EE0FFF1F35973197F1F7E881F9810480D8
:100A2000F581E02DD8018C91811102C060E001C0F8
:100A300062E0CE01DF91CF911F910F911994CF9376
:100A4000DF93EC0120E030E0A9016B897C898D897E
:100A50009E890E94170F18161CF4EFA5F8A902C072
:100A6000E9A9FAA9DF91CF911994CF92DF92EF9281
:100A7000FF920F931F93CF93DF93FC0122812430C9
:100A800041F0283031F0233031F0263021F012E0EF
:100A900003C014E001C013E0EC012796E12CF12C17
:100AA000C62ED12C01E0C6010E2C02C0959587956B
:100AB0000A94E2F7688180FD6027FE013497808107
:100AC000E0DCFFEFEF1AFF0A2196E11660F3DF91F9
:100AD000CF911F910F91FF90EF90DF90CF900895ED
:100AE0000F931F93DC0112960C91129710E00930BE
:100AF0001105D8F5F8018827E557FF4F8F4F0C9463
:100B00009A0FED91FC9111970084F185E02D29C099
:100B1000ED91FC9111970284F385E02D22C0ED91B7
:100B2000FC9111970484F585E02D1BC0ED91FC919B
:100B300011970684F785E02D14C0ED91FC91119773
:100B40000088F189E02D0DC0ED91FC91119702888C
:100B5000F389E02D06C0ED91FC9111970488F58989
:100B6000E02DCD011F910F9119941F910F910895C0
:100B70002F923F924F925F926F927F928F929F92AD
:100B8000AF92BF92CF92DF92EF92FF920F931F939B
:100B9000CF93DF9300D01F92CDB7DEB71C01FC01CD
:100BA00087849088A188B28883859485A585B68539
:100BB000881A990AAA0ABB0A638974898589968961
:100BC0009B01AC010E941B0F6B017C01F101638D45
:100BD000748D858D968D9B01AC0176D79B01AC0100
:100BE000C701B601D9D70E94340E81149104A10423
:100BF000B104A1F462307105810591050CF07CC04F
:100C0000F10113A214A215A216A2138A148A158A3E
:100C1000168A13AA14AA15AA16AAFCC0F10103A9E0
:100C200014A925A936A9ED5BFF4F181419041A045D
:100C30001B04FCF410161106120613064CF468157A
:100C400079058A059B054CF52081211155C025C0E9
:100C5000011511052105310509F44EC06815790506
:100C60008A059B050CF048C08081882309F444C0A4
:100C700037C01016110612061306F4F400271127C8
:100C80009801081919092A093B0960177107820799
:100C900093071CF42081222379F19B01AC01882762
:100CA0009927DC01821B930BA40BB50BF10183ABDD
:100CB00094ABA5ABB6AB20C00115110521053105DC
:100CC000D9F0CC24DD247601C818D908EA08FB083D
:100CD0006C157D058E059F057CF4808181110CC00B
:100CE00030952095109501951F4F2F4F3F4FF101E3
:100CF00003AB14AB25AB36ABF101C3A8D4A8E5A870
:100D0000F6A881010D5B1F4FC114D104E104F10469
:100D100091F487A990ADA1ADB2AD83AF94AFA5AF6B
:100D2000B6AF81E0181419041A041B040CF080E01B
:100D3000F80180833BC0F10183AC94ACA5ACB6ACA8
:100D4000A5019401C501B401BFD62B013C01C70127
:100D5000B601BDD720E030E040E850E40E941B0F10
:100D600020E030E040E85FE3AFD69B01AC01C30177
:100D7000B20112D79B01AC01C501B401A4D64B014D
:100D80005C01F101FF964080518062807380920186
:100D9000A3010E94170F181614F042015301A40179
:100DA000B501F10143AF54AF65AF76AFFFEFCF1A96
:100DB000DF0AEF0AFF0AF101C3AAD4AAE5AAF6AA3C
:100DC00023AD34AD45AD56ADCA01B90129833A838F
:100DD0004B835C834ED7F10163A374A385A396A3D1
:100DE00029813A814B815C8160E074E284E799E477
:100DF000D3D6F101638B748B858B968BF8012081A0
:100E0000211108C0DC01CB01B058F101838B948B18
:100E1000A58BB68B0F900F900F900F90DF91CF9115
:100E20001F910F91FF90EF90DF90CF90BF90AF9008
:100E30009F908F907F906F905F904F903F902F90FA
:100E40000895CF92DF92EF92FF920F931F93CF936B
:100E5000DF938C01EB01DC011A966D917C911B975D
:100E600080E090E032D76B017C01EE81FF81D801F8
:100E70001D960C9110E0119501951109012E000CA1
:100E8000220B330B83859485A585B685080F191F22
:100E90002A1F3B1F87859089A189B28980179107F6
:100EA000A207B30731F00787108B218B328BCF015C
:100EB0005FDE0E80DF81C02D2B893C894D895E89E4
:100EC000C701B60165D6882361F0B701A601CE013E
:100ED000DF91CF911F910F91FF90EF90DF90CF9016
:100EE0006CCBDF91CF911F910F91FF90EF90DF902E
:100EF000CF900895CF92DF92EF92FF920F931F93BE
:100F0000CF93DF93EC0169017A01EE81FF810385C4
:100F1000148525853685060F111D211D311D8785F8
:100F20009089A189B28980179107A207B30731F090
:100F30000787108B218B328BCF011ADE0E80DF8169
:100F4000C02D2B893C894D895E89C701B60120D609
:100F5000882361F0B701A601CE01DF91CF911F91E7
:100F60000F91FF90EF90DF90CF9027CBDF91CF9143
:100F70001F910F91FF90EF90DF90CF9008951F92F7
:100F80000F920FB60F9211240BB60F922F933F932F
:100F90004F935F936F937F938F939F93AF93BF9381
:100FA000EF93FF9383E392E0ACD9FF91EF91BF9170
:100FB000AF919F918F917F916F915F914F913F91F1
:100FC0002F910F900BBE0F900FBE0F901F90189592
:100FD0001F920F920FB60F9211240BB60F922F9300
:100FE0008F939F93EF93FF93E0914302F09144021C
:100FF0008081E0914902F0914A0282FD12C0908105
:1010000080914C028F5F8F7320914D02821751F0B7
:10101000E0914C02F0E0ED5CFD4F958F80934C0227
:1010200001C08081FF91EF919F918F912F910F903F
:101030000BBE0F900FBE0F901F901895CF93DF93AC
:1010400090E0FC01EE55FE4F2491FC01E45AFE4F66
:101050008491882361F190E0880F991FFC01E85D7D
:10106000FE4FC591D491FC01EE5BFE4FA591B4916A
:10107000611109C09FB7F8948881209582238883E5
:10108000EC912E230BC0623061F49FB7F894388145
:10109000822F809583238883EC912E2B2C939FBFE6
:1010A00006C08FB7F894E8812E2B28838FBFDF917D
:1010B000CF910895CF93DF93FC012281222329F160
:1010C000EC0161E08381BADF61E08C81B7DF8A8166
:1010D000843011F0883031F461E08D81AFDF61E060
:1010E0008E8106C0833011F0863019F461E08D8165
:1010F000A5DF8EA58F3F49F061E0A0DF6DA581E0FF
:1011000068278EA5DF91CF91BCC9DF91CF9108955B
:10111000CF93DF93FC012281222399F0EC0101900F
:10112000F081E02D0480F581E02D60E019958EA519
:101130008F3F39F061E082DF6DA58EA5DF91CF9101
:10114000A0C9DF91CF9108951F920F920FB60F9211
:1011500011242F933F938F939F93AF93BF938091CD
:101160002F0290913002A0913102B0913202309161
:101170002E0223E0230F2D3720F40196A11DB11D6F
:1011800005C026E8230F0296A11DB11D20932E0253
:1011900080932F0290933002A0933102B0933202D9
:1011A00080912A0290912B02A0912C02B0912D02E5
:1011B0000196A11DB11D80932A0290932B02A0934A
:1011C0002C02B0932D02BF91AF919F918F913F91CF
:1011D0002F910F900FBE0F901F901895CF92DF9216
:1011E000EF92FF920F931F93CF93DF938C01EB014C
:1011F00084EF91E0D8018D939C938DEC9CECACEC4A
:10120000BDE3F80182839383A483B58377836683E8
:1012100020E030E04AEF53E46F89788D898D9A8D14
:10122000B7D48823B9F180E090E0AAEFB3E48F8BC4
:10123000988FA98FBA8F80E090E0AAEFB4E4FE0106
:10124000FF9680839183A283B3838BA99CA9ADA9C8
:10125000BEA9181619061A061B06E4F46B897C89C8
:101260008D899E899B01AC01E6D56B017C016B8D5C
:101270007C8D8D8D9E8D9B01AC0126D49B01AC0194
:10128000C701B60189D4F0D46BAB7CAB8DAB9EAB00
:10129000CE016EDCD8011696ED91FC91179713865E
:1012A0001486158616861786108A118A128A13AA42
:1012B00014AA15AA16AA13A214A215A216A2138A7A
:1012C000148A158A168ADF91CF911F910F91FF9092
:1012D000EF90DF90CF900895CF92DF92EF92FF9240
:1012E0000F93CF93DF93EC0184E092E0998388839E
:1012F0006A831B861C861D861E861F86188A198A8D
:101300001A8A1B8A1C8A1D8A1E8A80E090E0A0E847
:10131000BFE38F8B988FA98FBA8F1B8E1C8E1D8E6B
:101320001E8E8F8F98A3A9A3BAA31BA21CA21DA2D5
:101330001EA261E070E07CA76BA73FEF3EA71FA253
:1013400018A619A61AA64B832C830D83EE821BAA1E
:101350001CAA1DAA1EAA1FAA18AE19AE1AAE1BAE51
:101360001CAE1DAE1EAEFE01FF9680839183A2834C
:10137000B383349610821F82188619861A86CC2071
:1013800011F0CE0197DECB8CDC8CED8CFE8C20E056
:1013900030E040E85FE3C701B601FAD3882331F1BA
:1013A0006BA97CA98DA99EA992D4A701960143D5CA
:1013B0005BD46BAB7CAB8DAB9EAB86E896E6A9E6C7
:1013C000B9E48FAB98AFA9AFBAAF80E090E0A0E8E6
:1013D000BFE38B8F9C8FAD8FBE8FCE01DF91CF91FE
:1013E0000F91FF90EF90DF90CF90C2CBDF91CF9124
:1013F0000F91FF90EF90DF90CF900895CF92DF9202
:10140000EF92FF920F931F93CF93DF936C017A01BA
:101410008B01C0E0D0E0CE15DF0589F0D8016D91D9
:101420008D01D601ED91FC910190F081E02DC60176
:101430001995892B11F47E0102C02196ECCFC701CA
:10144000DF91CF911F910F91FF90EF90DF90CF90A0
:1014500008959AD5789484B5826084BD84B58160FE
:1014600084BD85B5826085BD85B5816085BD80916F
:101470006E00816080936E001092810080918100E7
:1014800082608093810080918100816080938100DF
:10149000809180008160809380008091B1008460A1
:1014A0008093B1008091B00081608093B000809102
:1014B000910082608093910080919100816080937F
:1014C0009100809190008160809390008091A100B4
:1014D00082608093A1008091A10081608093A1002F
:1014E0008091A00081608093A000809121018260A2
:1014F000809321018091210181608093210180915D
:10150000200181608093200180917A008460809323
:101510007A0080917A00826080937A0080917A00CC
:10152000816080937A0080917A00806880937A004D
:101530001092C100E0914302F091440282E0808366
:10154000E0913F02F09140021082E0914102F0915F
:1015500042028FEC808310924B02E0914702F0919F
:10156000480286E08083E0914502F0914602808146
:1015700080618083E0914502F0914602808188601D
:101580008083E0914502F0914602808180688083EB
:10159000E0914502F091460280818F7D8083E09149
:1015A000E202F091E30286819781FC0103851485B4
:1015B0002585368547855089618972890417150705
:1015C00026073707A1F4E091E402F091E5020680D6
:1015D000F781E02D0385148525853685478550895B
:1015E000618972890417150726073707B9F056D89D
:1015F000E091E402F091E502868197814FD8E09175
:10160000E602F091E7028681978148D8E091E802EE
:10161000F091E9028681978141D89FC0E091E6026E
:10162000F091E7020680F781E02D0385148525857A
:101630003685478550896189728904171507260701
:101640003707A9F6E091E802F091E9020680F781F8
:10165000E02D038514852585368547855089618968
:101660007289041715072607370709F0C0CF809144
:10167000F6020E94BE02EC018091F8020E94BE02B6
:101680004091F2025091F3026091F4027091F502E0
:10169000FA01E61BF70BCE17DF0708F461C0B1E0D3
:1016A000A0E09B01240F351F2C173D0708F0B0E088
:1016B0002B2F3A2F3093FB022093FA028E179F07AD
:1016C00008F451C0640F751F41E050E068177907B6
:1016D00010F040E050E088279927841B950B9093E9
:1016E000FD028093FC022130310509F03FC060917A
:1016F000E4027091E50280ED92E0A3DB6091DA02F2
:101700007091DB0280E090E0E0D29B01AC0160913F
:10171000DD028091E8029091E902ECDB8091FC020D
:101720009091FD028130910509F03BC06091E20289
:101730007091E30280ED92E084DB6091DA027091B7
:10174000DB0280E090E0C1D29B01AC016091DD0240
:101750008091E6029091E702CDDB0E9409021FCF43
:101760002FEF3FEFA7CF81E090E0B9CF2F3F3F4F62
:10177000A9F66091DA027091DB0280E090E0A5D2D8
:101780009B01AC016091DD028091E4029091E50241
:10179000B1DB6091E8027091E90280ED92E051DBEB
:1017A000BDCF0196D1F66091DA027091DB0280E044
:1017B00090E08BD29B01AC016091DD028091E2024E
:1017C0009091E30297DB6091E6027091E70280ED71
:1017D00092E037DBC2CF8F929F92AF92BF92CF92AF
:1017E000EF920F93CF93DF93E3E3F2E01382128241
:1017F00088EE882E83E0982EA12CB12C84829582CD
:10180000A682B7828EE192E09183808385EC90E09E
:101810009587848784EC90E09787868780EC90E0BA
:10182000918B808B81EC90E0938B828B82EC90E0AB
:10183000958B848B86EC90E0978B868B118E128E25
:10184000138E148EE2EFF2E088E092E091838083C1
:1018500084E190E09383828311861086138612863A
:101860008EE390E0958384838FE390E09783868373
:1018700060E08EE3E3DB60E08FE3E0DB1092C5071E
:1018800060E080E0DBDBD1E0D093C40760E081E082
:10189000D5DBC2E0C093C30760E082E0CFDB83E02A
:1018A0008093C20760E0CADBCC24C39495E0E92EA4
:1018B00004E02AE14CE161E08EE797E00DDD6EE7A0
:1018C00077E086E797E08ADC86E08093750760E042
:1018D000B5DB2BE24DE261E081E397E0FDDC61E303
:1018E00077E089E297E07ADC89E08093280760E07E
:1018F000A5DB2FE141E261E084EE96E0EDDC64EEF1
:1019000076E08CED96E06ADC8CE08093DB0660E0AC
:1019100095DB23E245E261E087E996E0DDDC67E9FB
:1019200076E08FE896E05ADC8FE080938E0660E0E8
:1019300085DB27E249E261E08AE496E0CDDC6AE4F7
:1019400076E082E496E04ADC2EE140E261E08EEF50
:1019500095E0C2DC6EEF75E086EF95E03FDC22E3B8
:1019600044E361E082EB95E0B7DC62EB75E08AEA84
:1019700095E034DC22E244E261E086E695E0ACDC0E
:1019800066E675E08EE595E029DC27E149E161E056
:101990008AE195E0A1DC6AE175E082E195E01EDC78
:1019A0002AE24CE261E08EEC94E096DC6EEC74E0AE
:1019B00086EC94E013DC26E248E261E082E894E001
:1019C0008BDC62E874E08AE794E008DC2EE240E316
:1019D00061E086E394E080DC66E374E08EE294E00C
:1019E000FDDB2FE241E361E08AEE93E075DC6AEE15
:1019F00073E082EE93E0F2DB23E345E361E08EE9FE
:101A000093E06ADC6EE973E086E993E0E7DB2BE1C3
:101A10004DE161E082E593E05FDC62E573E08AE43A
:101A200093E0DCDB26E148E161E086E093E054DC12
:101A300066E073E08EEF92E0D1DBE0EDF2E08082D1
:101A40009182A282B38280ED97E0A0E0B0E084832F
:101A50009583A683B7838AEF90E0918780878CE295
:101A600091E093878287D487C58716861786108A68
:101A7000118A86E797E0938B828B89E297E0958BBA
:101A8000848B8CED96E0978B868B8FE896E0918F18
:101A9000808F85E797E0938F828F88E297E0958F1C
:101AA000848F8BED96E0978F868F8EE896E091A3DA
:101AB00080A3DF91CF910F91EF90CF90BF90AF9027
:101AC0009F908F9008955058BB27AA270ED075C1BC
:101AD00066D130F06BD120F031F49F3F11F41EF449
:101AE0005BC10EF4E095E7FB51C1E92F77D180F39C
:101AF000BA17620773078407950718F071F49EF50B
:101B00008FC10EF4E0950B2EBA2FA02D0B01B90159
:101B100090010C01CA01A0011124FF27591B99F063
:101B2000593F50F4503E68F11A16F040A22F232F6F
:101B3000342F4427585FF3CF469537952795A795BF
:101B4000F0405395C9F77EF41F16BA0B620B730B66
:101B5000840BBAF09150A1F0FF0FBB1F661F771FD7
:101B6000881FC2F70EC0BA0F621F731F841F48F48C
:101B7000879577956795B795F7959E3F08F0B3CF12
:101B80009395880F08F09927EE0F979587950895FC
:101B9000D9D008F481E008950CD00FC107D140F0EE
:101BA000FED030F021F45F3F19F0F0C0511139C17F
:101BB000F3C014D198F39923C9F35523B1F3951BBE
:101BC000550BBB27AA2762177307840738F09F5F5E
:101BD0005F4F220F331F441FAA1FA9F333D00E2ECD
:101BE0003AF0E0E830D091505040E695001CCAF73A
:101BF00029D0FE2F27D0660F771F881FBB1F2617FF
:101C000037074807AB07B0E809F0BB0B802DBF01D1
:101C1000FF2793585F4F2AF09E3F510568F0B6C0EA
:101C200000C15F3FECF3983EDCF3869577956795AE
:101C3000B795F7959F5FC9F7880F911D9695879582
:101C400097F90895E1E0660F771F881FBB1F6217A1
:101C500073078407BA0720F0621B730B840BBA0B5F
:101C6000EE1F88F7E095089504D06894B111D9C0AB
:101C70000895BCD088F09F5790F0B92F9927B7519D
:101C8000A0F0D1F0660F771F881F991F1AF0BA9540
:101C9000C9F712C0B13081F0C3D0B1E00895C0C01F
:101CA000672F782F8827B85F39F0B93FCCF3869536
:101CB00077956795B395D9F73EF490958095709593
:101CC00061957F4F8F4F9F4F0895E89409C097FB10
:101CD0003EF490958095709561957F4F8F4F9F4F03
:101CE0009923A9F0F92F96E9BB279395F695879547
:101CF00077956795B795F111F8CFFAF4BB0F11F40A
:101D000060FF1BC06F5F7F4F8F4F9F4F16C08823B0
:101D100011F096E911C0772321F09EE8872F762FE6
:101D200005C0662371F096E8862F70E060E02AF027
:101D30009A95660F771F881FDAF7880F9695879513
:101D400097F90895990F0008550FAA0BE0E8FEEFE8
:101D500016161706E807F907C0F012161306E4076F
:101D6000F50798F0621B730B840B950B39F40A2668
:101D700061F0232B242B252B21F408950A2609F446
:101D8000A140A6958FEF811D811D089597F99F674A
:101D900080E870E060E008959FEF80EC08950024F3
:101DA0000A941616170618060906089500240A94C0
:101DB00012161306140605060895092E0394000C46
:101DC00011F4882352F0BB0F40F4BF2B11F460FFD5
:101DD00004C06F5F7F4F8F4F9F4F089557FD9058FE
:101DE000440F551F59F05F3F71F04795880F97FBDF
:101DF000991F61F09F3F79F0879508951216130699
:101E00001406551FF2CF4695F1DF08C016161706C7
:101E10001806991FF1CF86957105610508940895FC
:101E2000E894BB2766277727CB0197F908958ADFC7
:101E300008F48FEF08950BD0C0CFB1DF28F0B6DFE4
:101E400018F0952309F0A2CFA7CF1124EACFC6DF5F
:101E5000A0F3959FD1F3950F50E0551F629FF001BD
:101E6000729FBB27F00DB11D639FAA27F00DB11D16
:101E7000AA1F649F6627B00DA11D661F829F22279F
:101E8000B00DA11D621F739FB00DA11D621F839F26
:101E9000A00D611D221F749F3327A00D611D231FFC
:101EA000849F600D211D822F762F6A2F11249F574A
:101EB00050408AF0E1F088234AF0EE0FFF1FBB1F6D
:101EC000661F771F881F91505040A9F79E3F51050C
:101ED00070F05CCFA6CF5F3FECF3983EDCF38695C5
:101EE00077956795B795F795E7959F5FC1F7FE2BB7
:101EF000880F911D9695879597F90895052E97FB64
:101F000016F400940FD057FD05D01CD007FC02D06A
:101F100046F408C050954095309521953F4F4F4F5E
:101F20005F4F089590958095709561957F4F8F4F85
:101F30009F4F0895EE0FFF1F881F8BBF0790F691EC
:101F4000E02D1994A1E21A2EAA1BBB1BFD010DC0A6
:101F5000AA1FBB1FEE1FFF1FA217B307E407F50759
:101F600020F0A21BB30BE40BF50B661F771F881F35
:101F7000991F1A9469F760957095809590959B01CB
:101F8000AC01BD01CF01089581E090E0F89400C05C
:041F9000F894FFCFF3
:101F94000000000088085A08350570051F05DD0497
:101FA400BC04880467041104D90300000000A201E2
:0A1FB400FE096C014A015E01E8011C
:020000023000CC
:10E000000D9489F10D94B2F10D94B2F10D94B2F129
:10E010000D94B2F10D94B2F10D94B2F10D94B2F1F0
:10E020000D94B2F10D94B2F10D94B2F10D94B2F1E0
:10E030000D94B2F10D94B2F10D94B2F10D94B2F1D0
:10E040000D94B2F10D94B2F10D94B2F10D94B2F1C0
:10E050000D94B2F10D94B2F10D94B2F10D94B2F1B0
:10E060000D94B2F10D94B2F10D94B2F10D94B2F1A0
:10E070000D94B2F10D94B2F10D94B2F10D94B2F190
:10E080000D94B2F10D94B2F10D94B2F10D94B2F180
:10E090000D94B2F10D94B2F10D94B2F10D94B2F170
:10E0A0000D94B2F10D94B2F10D94B2F10D94B2F160
:10E0B0000D94B2F10D94B2F10D94B2F10D94B2F150
:10E0C0000D94B2F10D94B2F10D94B2F10D94B2F140
:10E0D0000D94B2F10D94B2F10D94B2F10D94B2F130
:10E0E0000D94B2F141546D656761323536300041AF
:10E0F000726475696E6F206578706C6F72657220DE
:10E1000073746B3530305632206279204D4C530099
:10E11000426F6F746C6F616465723E004875683F52
:10E1200000436F6D70696C6564206F6E203D200048
:10E130004350552054797065202020203D20005FF9
:10E140005F4156525F415243485F5F3D2000415658
:10E1500052204C696243205665723D20004743437C
:10E160002056657273696F6E203D20004350552024
:10E1700049442020202020203D20004C6F7720663D
:10E18000757365202020203D20004869676820665F
:10E190007573652020203D200045787420667573D6
:10E1A00065202020203D20004C6F636B2066757336
:10E1B000652020203D20004D617220203720323024
:10E1C000313300312E362E3800342E332E350056A2
:10E1D00023202020414444522020206F7020636F70
:10E1E00064652020202020696E73747275637469E1
:10E1F0006F6E2061646472202020496E74657272B3
:10E20000757074006E6F20766563746F7200726A49
:10E210006D702020006A6D70200057686174207056
:10E220006F72743A00506F7274206E6F7420737541
:10E2300070706F72746564004D7573742062652030
:10E2400061206C6574746572002000577269747483
:10E25000696E672045450052656164696E672045B7
:10E26000450045452065727220636E743D00504F35
:10E27000525400303D5A65726F2061646472003FF1
:10E280003D43505520737461747300403D454550C3
:10E29000524F4D207465737400423D426C696E6B41
:10E2A000204C454400453D44756D70204545505215
:10E2B0004F4D00463D44756D7020464C415348001B
:10E2C000483D48656C70004C3D4C69737420492F83
:10E2D0004F20506F72747300513D51756974005234
:10E2E0003D44756D702052414D00563D73686F7707
:10E2F00020696E7465727275707420566563746FF0
:10E30000727300593D506F727420626C696E6B00BD
:10E310002A0011241FBECFEFD1E2DEBFCDBF01E046
:10E320000CBF12E0A0E0B2E0EEE1FDEF03E00BBFB6
:10E3300002C007900D92A030B107D9F712E0A0E01B
:10E34000B2E001C01D92AE30B107E1F70F9460F367
:10E350000D948DFE01E20EBF0FEF0DBF11241FBE05
:10E360000D9460F30D9400F020E030E040ED57E0B4
:10E3700005C0FA013197F1F72F5F3F4F2817390792
:10E38000C0F308959C01260F311DC901A0E0B0E043
:10E390002F5F3F4FABBFFC018791882361F08093D3
:10E3A000C6008091C00086FFFCCF8091C0008064D1
:10E3B0008093C000EACF08958DE08093C6008091DD
:10E3C000C00086FFFCCF8091C00080648093C000B5
:10E3D0008AE08093C6008091C00086FFFCCF8091C8
:10E3E000C00080648093C00008950F94C2F10F9420
:10E3F000DCF10895FC019081992359F09093C600B7
:10E400008091C00086FFFCCF8091C0008064809323
:10E41000C0003196992379F70895282F982F929567
:10E420009F70892F805D8A3308F0895F8093C600D2
:10E430008091C00086FFFCCF8091C00080648093F3
:10E44000C000822F8F70982F905D9A3308F0995FEB
:10E450009093C6008091C00086FFFCCF8091C000E1
:10E4600080648093C00008959C01FB01853691056E
:10E470001CF46330710594F0C90164E670E00F94F8
:10E480002EFE605D7F4F6093C6008091C00086FFC6
:10E49000FCCF8091C00080648093C0002B30310598
:10E4A00014F43297B4F0C90164E670E00F942EFEC4
:10E4B0006AE070E00F942EFE605D7F4F6093C600AF
:10E4C0008091C00086FFFCCF8091C0008064809363
:10E4D000C000C9016AE070E00F942EFEC0968093E0
:10E4E000C6008091C00086FFFCCF8091C000806490
:10E4F0008093C00008951F93182F8EE692EE60E07F
:10E500000F94C2F11093C6008091C00086FFFCCF2B
:10E510008091C00080648093C0000F94DCF11F9153
:10E5200008952F923F924F925F926F927F928F92B7
:10E530009F92AF92BF92CF92DF92EF92FF920F9392
:10E540001F93DF93CF93CDB7DEB762970FB6F894E2
:10E55000DEBF0FBECDBF382E622ECA01DB015C01CB
:10E560006D01772420E2222E2E010894411C511CBB
:10E570008BC081E0A81680E0B80681E0C80680E084
:10E58000D80628F0C601AA27BB270F940DF2BB2797
:10E59000AD2D9C2D8B2D0F940DF28A2D0F940DF225
:10E5A0002092C6008091C00086FFFCCF8091C00001
:10E5B00080648093C0009DE29093C6008091C0006B
:10E5C00086FFFCCF8091C00080648093C0002092C1
:10E5D000C6008091C00086FFFCCF8091C00080649F
:10E5E0008093C00019828601750188249924A1E0D6
:10E5F0003A1651F03A1620F0B2E03B1661F409C029
:10E600000BBFF701779007C0C7010F9477FE782EF4
:10E6100002C0F7017080872D0F940DF22092C60082
:10E620008091C00086FFFCCF8091C0008064809301
:10E63000C000872D8052F401EF70F0708F3520F408
:10E64000E40DF51D708204C0E40DF51D8EE280839B
:10E650000894E11CF11C011D111D0894811C911CE2
:10E6600090E18916910409F0C2CF80E190E0A0E02A
:10E67000B0E0A80EB91ECA1EDB1E198AC2010F9493
:10E68000FAF10F94DCF16A94662009F072CF629679
:10E690000FB6F894DEBF0FBECDBFCF91DF911F91B3
:10E6A0000F91FF90EF90DF90CF90BF90AF909F9031
:10E6B0008F907F906F905F904F903F902F90089534
:10E6C0002F923F924F925F926F927F928F929F9282
:10E6D000AF92BF92CF92DF92EF92FF920F931F9370
:10E6E000DF93CF93CDB7DEB7CD53D1400FB6F894BB
:10E6F000DEBF0FBECDBF01E20EBF0FEF0DBF94B75F
:10E70000F894A89514BE80916000886180936000A1
:10E7100010926000789493FF05C0E0910002F091A0
:10E7200001021995279A2F9A8091C00082608093E8
:10E73000C00080E18093C40088E18093C1000000A4
:10E74000EE24FF24870144E0A42EB12CCC24DD2448
:10E7500024C0C5010197F1F70894E11CF11C011DCB
:10E76000111D21E2E2162EE4F20620E0020720E06D
:10E77000120718F031E0C32ED12CC801B70127ECE5
:10E780003BE140E050E00F9441FE611571058105C9
:10E79000910519F485B1805885B98091C00087FD35
:10E7A00003C0C114D104A9F2A6014F5F5F4FC25E3E
:10E7B000DE4F59834883CE51D140C25EDE4F8881FF
:10E7C0009981CE51D140019711F00D9410FEC05D9A
:10E7D000DE4F19821882C053D14060E0C15DDE4F28
:10E7E0001882CF52D14088249924C35DDE4F19820C
:10E7F0001882CD52D140C05EDE4F188219821A8233
:10E800001B82C052D140CE5CDE4F188219821A8220
:10E810001B82C253D140EE24FF2487010BBFF701B6
:10E8200007911691C45CDE4F19830883CC53D14005
:10E830000D940BFEC25EDE4F28813981CE51D1404E
:10E840002130310509F52091C600C25EDE4F1982E4
:10E850001882CE51D14022C02F5F3F4F4F4F5F4FA4
:10E86000213082E138078AE7480780E0580780F0C6
:10E87000C45CDE4FE881F981CC53D140EF5FFF4F9C
:10E8800019F0EE27FF27099420E030E040E050E047
:10E890008091C00087FFE0CF2091C600C35DDE4FAE
:10E8A00048815981CD52D1404F5F5F4FC35DDE4FEC
:10E8B00059834883CD52D140213209F063C64A3092
:10E8C000510508F05FC60894811C911C53E0851621
:10E8D000910409F059C600E010E018C081E280936D
:10E8E000C6008091C00086FFFCCF8091C00080648C
:10E8F0008093C0002F5F3F4F2931310579F70F9486
:10E90000DCF10F5F1F4F0530110519F020E030E0FA
:10E91000E5CF10920A0210920B0210920C02109294
:10E920000D02109206021092070210920802109235
:10E930000902109202021092030210920402109235
:10E9400005028FEE90EE60E00F94F5F180E191EE1C
:10E9500060E00F94C2F18091C00087FFFCCF9091DE
:10E96000C600903608F09F759032B8F09093C600BC
:10E970008091C00086FFFCCF8091C00080648093AE
:10E98000C000A0E2A093C6008091C00086FFFCCF2B
:10E990008091C00080648093C000983409F4D7C18E
:10E9A0009934B8F4923409F459C1933458F490333B
:10E9B00019F1903308F4E3C59F33A1F1903409F0C5
:10E9C000DEC5BDC0953409F470C1963409F0D7C5D1
:10E9D00098C1923509F42BC2933538F49C3409F46C
:10E9E000F5C1913509F0CBC518C2963509F445C279
:10E9F000993509F0C4C567C483E792EE62E00F94CD
:10EA0000F5F110920602109207021092080210927D
:10EA1000090210920A0210920B0210920C0210923C
:10EA20000D0213C18FE792EE62E00F94F5F18FEEC5
:10EA300090EE60E00F94F5F181E291EE60E00F94CA
:10EA4000C2F187EB91EE60E00F94F5F180E391EE77
:10EA500060E00F94C2F184EE90EE60E00F94F5F167
:10EA60008FE391EE60E00F94C2F186E090E061E008
:10EA700070E00F9434F20F94DCF18DE591EE60E0DC
:10EA80000F94C2F189EC91EE60E00F94F5F18EE401
:10EA900091EE60E00F94C2F183EC91EE60E00F9490
:10EAA000F5F18CE691EE60E00F94C2F18EE10F94E7
:10EAB0000DF288E90F940DF281E00F940DF20F949E
:10EAC000DCF18BE791EE60E00F94C2F119E0E0E039
:10EAD000F0E010935700E4918E2F0F940DF20F94F5
:10EAE000DCF18AE891EE60E00F94C2F1E3E0F0E03F
:10EAF00010935700E4918E2F0F940DF20F94DCF1D8
:10EB000089E991EE60E00F94C2F1E2E0F0E0109349
:10EB10005700E4918E2F0F940DF20F94DCF188EAE8
:10EB200091EE60E00F94C2F1E1E0F0E01093570045
:10EB30001491812F0F940DF20F94DCF107CF8BE825
:10EB400092EE62E00F94F5F18BE492EE60E00F94A8
:10EB5000F5F10F94DCF100E010E019C0C8016F2D51
:10EB60000F947FFEFF2031F489E492EE60E00F9471
:10EB7000C2F10BC0F092C6008091C00086FFFCCFAE
:10EB80008091C00080648093C0000F5F1F4FC80158
:10EB900081519F41A0E0B0E0ABBFFC01F790BAE229
:10EBA000FB1621F0E2E000301E07C1F60F94DCF105
:10EBB0000F94DCF187E592EE60E00F94F5F10F948D
:10EBC000DCF1CC24DD2400E010E01EC0C8010F946D
:10EBD00077FEF82E882331F489E492EE60E00F94FA
:10EBE000C2F10BC08093C6008091C00086FFFCCFAD
:10EBF0008091C00080648093C000FE1419F00894D6
:10EC0000C11CD11C0F5F1F4FC80181519F41A0E063
:10EC1000B0E0ABBFFC01E790FAE2EF1621F022E092
:10EC20000030120799F60F94DCF10F94DCF182E6C4
:10EC300092EE60E00F94C2F1C60161E070E00F94C3
:10EC400034F20F94DCF10F94DCF110920202109276
:10EC50000302109204021092050278CE89E992EE26
:10EC600062E00F94F5F1279A2F9A16C02F9880E052
:10EC700090E0E0EDF7E03197F1F7019684369105E9
:10EC8000C1F72F9A80E090E0E0EDF7E03197F1F7DF
:10EC9000019684369105C1F78091C00087FFE6CFC9
:10ECA0008091C00087FFFCCF64C485EA92EE62E0E9
:10ECB0000F94F5F140910202509103026091040219
:10ECC0007091050281E020E10F9491F2809102029F
:10ECD00090910302A0910402B091050280509F4FD1
:10ECE000AF4FBF4F8093020290930302A0930402A0
:10ECF000B093050280509041A040B04008F426CE69
:10ED0000A4CF83EB92EE62E00F94F5F140910602FE
:10ED100050910702609108027091090280E020E1A1
:10ED20000F9491F28091060290910702A09108023F
:10ED3000B091090280509F4FAF4FBF4F80930602A2
:10ED400090930702A0930802B0930902FFCD80ECD4
:10ED500092EE62E00F94F5F183E792EE60E00F949B
:10ED6000F5F18FE792EE60E00F94F5F18BE892EE0B
:10ED700060E00F94F5F189E992EE60E00F94F5F10F
:10ED800085EA92EE60E00F94F5F183EB92EE60E09D
:10ED90000F94F5F180EC92EE60E00F94F5F187ECC2
:10EDA00092EE60E00F94F5F188ED92EE60E00F9442
:10EDB000F5F18FED92EE60E00F94F5F18AEE92EEB0
:10EDC00060E00F94F5F183E093EEBDCD87EC92EE19
:10EDD00062E00F94F5F181E40F947BF282E40F94EA
:10EDE0007BF283E40F947BF284E40F947BF285E45E
:10EDF0000F947BF286E40F947BF287E40F947BF20E
:10EE000088E40F947BF28AE40F947BF28BE40F94F6
:10EE10007BF28CE40F947BF299CD88ED92EE62E068
:10EE20000F94F5F1772473948824992409C48FED05
:10EE300092EE62E00F94F5F140910A0250910B02BC
:10EE400060910C0270910D0282E020E10F9491F22A
:10EE500080910A0290910B02A0910C02B0910D02D8
:10EE600080509F4FAF4FBF4F80930A0290930B0289
:10EE7000A0930C02B0930D0269CD8AEE92EE62E08F
:10EE80000F94F5F184EE90EE60E00F94F5F18FECC5
:10EE900091EE60E00F94F5F1662477244301CC5D98
:10EEA000DE4F19821882C452D140D401C301B695F5
:10EEB000A79597958795CA5DDE4F88839983AA8326
:10EEC000BB83C652D140CC5DDE4FA881B981C4520C
:10EED000D1401196CC5DDE4FB983A883C452D14096
:10EEE000CD0162E070E00F9434F2B0E2B093C6005E
:10EEF0008091C00086FFFCCF8091C0008064809329
:10EF0000C000EDE2E093C6008091C00086FFFCCF18
:10EF10008091C00080648093C000F0E2F093C6004E
:10EF20008091C00086FFFCCF8091C00080648093F8
:10EF3000C000CA5DDE4FE880F9800A811B81C6529D
:10EF4000D140BB27A12F902F8F2D0F940DF2CA5DBA
:10EF5000DE4F8881C652D1400F940DF2B0E2FB2EF5
:10EF6000F092C6008091C00086FFFCCF8091C00067
:10EF700080648093C0000DE30093C6008091C000C0
:10EF800086FFFCCF8091C00080648093C00010E2B7
:10EF90001093C6008091C00086FFFCCF8091C00016
:10EFA00080648093C0008BBEF3012791C65DDE4F65
:10EFB0002883CA52D140A22EBB24CC24DD2408943D
:10EFC000611C711C811C911C8BBEF3018791282E42
:10EFD0003324442455240894611C711C811C911C09
:10EFE0008BBEF3013791C55DDE4F3883CB52D140E4
:10EFF0000894611C711C811C911C8BBEF30147910C
:10F00000C45DDE4F4883CC52D140ADEFEA2EAFEF66
:10F01000FA2EAFEF0A2FAFEF1A2F6E0C7F1C801E57
:10F02000911E142D032DF22CEE24EA0CFB1C0C1D5A
:10F030001D1D0F940DF220E22093C6008091C000A8
:10F0400086FFFCCF8091C00080648093C000C65DC5
:10F05000DE4F8881CA52D1400F940DF230E23093D6
:10F06000C6008091C00086FFFCCF8091C000806404
:10F070008093C000C45DDE4F8881CC52D1400F9494
:10F080000DF240E24093C6008091C00086FFFCCFA5
:10F090008091C00080648093C000C55DDE4F888190
:10F0A000CB52D1400F940DF250E25093C6008091A4
:10F0B000C00086FFFCCF8091C00080648093C000B8
:10F0C0008FEFE8168FEFF80680E0080780E018075A
:10F0D00031F484E092EE60E00F94C2F1DFC0D80119
:10F0E000C7018070907CA070B0708050904CA040A0
:10F0F000B040D1F52FEF3FE340E050E0E222F322B1
:10F1000004231523CA5DDE4FA880B980CA80DB8046
:10F11000C652D140AE0CBF1CC01ED11EAA0CBB1CD7
:10F12000CC1CDD1C8EE092EE60E00F94C2F1BB2798
:10F13000A12F902F8F2D0F940DF28E2D0F940DF285
:10F1400030E23093C6008091C00086FFFCCF8091F2
:10F15000C00080648093C0004EE34093C60080915D
:10F16000C00086FFFCCF87C08EE09EEFA0E0B0E03D
:10F17000E822F9220A231B239CE0E91694E9F90608
:10F1800090E0090790E0190709F088C0C45DDE4FE0
:10F19000A881CC52D140EA2EFF2400E010E0102FCD
:10F1A0000F2DFE2CEE24C55DDE4FB881CB52D14031
:10F1B000EB0EF11C011D111DD601C501817090706F
:10F1C000A070B070DC0199278827E80EF91E0A1F8D
:10F1D0001B1F20EF30E040E050E0A222B322C42207
:10F1E000D52241E1AA0CBB1CCC1CDD1C4A95D1F7F1
:10F1F000EA0CFB1C0C1D1D1D81E090E0A0E0B0E0BE
:10F20000282239224A225B2235E1220C331C441C7D
:10F21000551C3A95D1F7E20CF31C041D151D57013E
:10F220006801AA0CBB1CCC1CDD1C85E192EE60E0E1
:10F230000F94C2F1C801AA27BB270F940DF2BB2778
:10F24000A12F902F8F2D0F940DF28E2D0F940DF274
:10F2500090E29093C6008091C00086FFFCCF809121
:10F26000C00080648093C000AEE3A093C60080918C
:10F27000C00086FFFCCF8091C00080648093C000F6
:10F28000C601AA27BB270F940DF2BB27AD2D9C2DDD
:10F290008B2D0F940DF28A2D0F940DF20F94DCF14B
:10F2A000CC5DDE4FE881F981C452D140F99709F471
:10F2B0004DCBF4E0EF2EF12C012D112D6E0C7F1CA7
:10F2C000801E911EF2CD83E093EE62E00F94F5F183
:10F2D0008AE192EE60E00F94C2F18091C00087FF56
:10F2E000FCCF1091C6001F751093C6008091C0001E
:10F2F00086FFFCCF8091C00080648093C0000F9493
:10F30000DCF1812F81548A3108F036C1163409F4BA
:10F3100095C0173490F4133409F44EC0143430F40B
:10F320001134F1F0123409F01DC130C0143409F465
:10F3300059C0153409F016C16BC01A3409F4C4C0A1
:10F340001B3438F4173409F48FC0183409F00AC19B
:10F35000A1C01B3409F4D2C01C3409F003C1E8C0B9
:10F360008FEF81B90DC082B1809582B980E090E0C5
:10F37000E0EDF7E03197F1F70196883C9105C1F790
:10F380008091C00087FFEFCF12B8EFC08FEF84B934
:10F390000DC085B1809585B980E090E0E0EDF7E0A3
:10F3A0003197F1F70196883C9105C1F78091C00033
:10F3B00087FFEFCF15B8D9C08FEF87B90DC088B1DF
:10F3C000809588B980E090E0E0EDF7E03197F1F7C3
:10F3D0000196883C9105C1F78091C00087FFEFCF6F
:10F3E00018B8C3C08FEF8AB90DC08BB180958BB9A7
:10F3F00080E090E0E0EDF7E03197F1F70196883C8E
:10F400009105C1F78091C00087FFEFCF1BB8ADC059
:10F410008FEF8DB90DC08EB180958EB980E090E0F0
:10F42000E0EDF7E03197F1F70196883C9105C1F7DF
:10F430008091C00087FFEFCF1EB897C08FEF80BBD1
:10F440000DC081B3809581BB80E090E0E0EDF7E0F6
:10F450003197F1F70196883C9105C1F78091C00082
:10F4600087FFEFCF11BA81C08FEF83BB0DC084B38C
:10F47000809584BB80E090E0E0EDF7E03197F1F714
:10F480000196883C9105C1F78091C00087FFEFCFBE
:10F4900014BA6BC08FEF809301010FC080910201FD
:10F4A00080958093020180E090E0E0EDF7E03197F5
:10F4B000F1F70196883C9105C1F78091C00087FF64
:10F4C000EDCF1092020151C08FEF809304010FC065
:10F4D0008091050180958093050180E090E0E0ED4A
:10F4E000F7E03197F1F70196883C9105C1F78091DB
:10F4F000C00087FFEDCF1092050137C08FEF8093DA
:10F5000007010FC08091080180958093080180E079
:10F5100090E0E0EDF7E03197F1F70196883C910536
:10F52000C1F78091C00087FFEDCF109208011DC088
:10F530008FEF80930A010FC080910B01809580931B
:10F540000B0180E090E0E0EDF7E03197F1F70196F4
:10F55000883C9105C1F78091C00087FFEDCF1092E4
:10F560000B0103C085E292EEEEC98091C00087FFD7
:10F57000FCCF8091C600EAC988E392EEE4C98CE131
:10F5800091EEE1C988249924933011F1943028F444
:10F59000913089F09230B8F408C0953061F195301F
:10F5A000F0F0963009F048C043C02B3109F042C951
:10F5B00091E06BE13FC96227C15DDE4F2883CF52E6
:10F5C000D14092E037C9B22FA0E0622793E032C960
:10F5D000822F90E0A82BB92B622794E02BC92E3004
:10F5E00009F039C3622795E0C05DDE4F19821882A9
:10F5F000C053D1401FC9E1E0F0E0EC0FFD1FC05D3A
:10F60000DE4F08811981C053D140E00FF11F2083E4
:10F610000F5F1F4FC05DDE4F19830883C053D14079
:10F6200062270A171B0709F005C9D80196E002C92D
:10F63000261709F010C303C0973009F0FBC87724E0
:10F640009981933109F412C19431C8F4963009F4C8
:10F65000D8C0973050F4923009F406C1933009F4C1
:10F660006DC0913009F059C253C0913109F477C08F
:10F67000923108F0BBC0903109F04FC2F5C098310B
:10F6800009F487C0993150F4953109F4EFC09531F0
:10F6900008F4C6C1963109F040C2C2C19A3109F4DA
:10F6A0006CC09A3108F491C09B3109F45BC09D3164
:10F6B00009F033C29D81903359F48F81882311F46E
:10F6C0009EE11CC0813011F091E018C098E916C08D
:10F6D000892F807591F0903539F4E0E0F0E089E011
:10F6E0008093570094910AC0983539F4E3E0F0E034
:10F6F00089E080935700949101C090E01A821B82A8
:10F700008D818C831D829E831F8227E030E009C299
:10F710001A8288E08B8381E48C8386E58D8382E581
:10F720008E8389E48F8383E5888780E589878FE5E9
:10F730008A8782E38B872BE030E0F3C18A818139AD
:10F7400041F0823941F0803911F48FE005C080E04A
:10F7500003C082E001C08AE01A828B8344C0772410
:10F76000739482C08D81882311F48EE12CC0813086
:10F7700011F081E028C088E926C01A82E1E0F0E0BB
:10F7800089E08093570084918B831C8224E030E0D1
:10F79000C8C18B81803589F48C81883039F4E2E0EE
:10F7A000F0E089E08093570084910DC0E0E0F0E044
:10F7B00089E080935700849106C0E3E0F0E089E09F
:10F7C0008093570084911A82DFCF8D81836C99E0FA
:10F7D000E1E0F0E0082E90935700E89507B600FCB2
:10F7E000FDCF1A821B8223E030E09BC180EC8A832C
:10F7F000CE5CDE4F188219821A821B82C253D1401E
:10F800008EC18A8190E0A0E0B0E0582F44273327D2
:10F8100022278B8190E0A0E0B0E0DC0199278827C7
:10F82000282B392B4A2B5B2B8D8190E0A0E0B0E098
:10F83000282B392B4A2B5B2B8C8190E0A0E0B0E089
:10F84000BA2FA92F982F8827282B392B4A2B5B2BCF
:10F85000220F331F441F551FC05EDE4F288339839C
:10F860004A835B83C052D1401A8259C13A81C95C34
:10F87000DE4F3883C753D140CA5CDE4F1882C6536F
:10F88000D1408B81C82EDD24CA5CDE4F488159816E
:10F89000C653D140C42AD52A933109F082C0CE5C28
:10F8A000DE4F88819981AA81BB81C253D1408050AB
:10F8B000904CA340B04030F583E0CE5CDE4FE88052
:10F8C000F9800A811B81C253D140F70100935B008C
:10F8D00080935700E89507B600FCFDCFCE5CDE4F65
:10F8E000088119812A813B81C253D14000501F4FAA
:10F8F0002F4F3F4FCE5CDE4F088319832A833B8313
:10F90000C253D140C05EDE4F488159816A817B81FC
:10F91000C052D140DE011B9631E08C9111962C91A2
:10F9200011971296C75CDE4F2883C953D140C85C3B
:10F93000DE4F1882C853D14090E0C85CDE4FE881AA
:10F94000F981C853D1408E2B9F2B0C01FA01609393
:10F950005B0030935700E89511244E5F5F4F6F4F67
:10F960007F4F0EEFE02E0FEFF02ECE0CDF1CC114F8
:10F97000D10499F685E0C05EDE4F088119812A81A5
:10F980003B81C052D140F80120935B008093570027
:10F99000E89507B600FCFDCF81E180935700E8951C
:10F9A00035C0C05EDE4F88819981AA81BB81C0527B
:10F9B000D140B695A795979587957C018601ABE0D8
:10F9C000AA2EB12CAC0EBD1E0BC0D5016D915D01F0
:10F9D000C7010F947FFE0894E11CF11C01501040F8
:10F9E0000115110591F7A60160E070E0440F551F65
:10F9F000661F771FC05EDE4FE880F9800A811B8199
:10FA0000C052D1404E0D5F1D601F711F1A82C05E33
:10FA1000DE4F488359836A837B83C052D1407FC0C5
:10FA2000FA80C55CDE4FF882CB53D140C65CDE4F16
:10FA30001882CA53D1408B81C82EDD24C65CDE4FAC
:10FA400008811981CA53D140C02AD12A1A828981DA
:10FA5000BE016D5F7F4F843121F59601C05EDE4FA0
:10FA6000E880F9800A811B81C052D1400BBFF701A9
:10FA700087919691DB018C9311969C936E5F7F4FDB
:10FA8000D801C7010296A11DB11DC05EDE4F88835B
:10FA90009983AA83BB83C052D14022503040F1F6F3
:10FAA00036C0C05EDE4F288139814A815B81C052F9
:10FAB000D1400894C108D108760100E010E0089414
:10FAC000C11CD11C0894E11CF11C011D111DE20E8A
:10FAD000F31E041F151F21BDBB27A52F942F832FB5
:10FAE00082BD2F5F3F4F4F4F5F4FF89A80B5DB01CC
:10FAF0008D93BD012E153F054007510761F7C05E8C
:10FB0000DE4F288339834A835B83C052D1409601FC
:10FB10002D5F3F4FFB01108204C080EC8A8322E0FE
:10FB200030E08BE18093C6008091C00086FFFCCF5F
:10FB30008091C00080648093C000C15DDE4FF88179
:10FB4000CF52D140F093C6008091C00086FFFCCF19
:10FB50008091C00080648093C000432F3093C60022
:10FB60008091C00086FFFCCF8091C00080648093AC
:10FB7000C000922F2093C6008091C00086FFFCCF6A
:10FB80008091C00080648093C0008EE08093C600A6
:10FB90008091C00086FFFCCF8091C000806480937C
:10FBA000C00065E1C15DDE4FE880CF52D1406E25D7
:10FBB00069276427FE01319610C090819093C6009A
:10FBC0008091C00086FFFCCF31968091C000806498
:10FBD0008093C0006927215030402115310569F715
:10FBE0006093C6008091C00086FFFCCF8091C0006A
:10FBF00080648093C00085B1805885B9772081F4F6
:10FC0000C15DDE4F0881CF52D1400F5FC15DDE4F35
:10FC10000883CF52D14090E0A0E0B0E00D941AF4F8
:10FC200027982F9880E090E020ED37E0F901319798
:10FC3000F1F7019684369105C9F700008091C00064
:10FC40008D7F8093C00081E180935700E895EE2777
:10FC5000FF270994FFCF90E00D941AF497FB092E2B
:10FC600007260AD077FD04D02ED006D000201AF443
:10FC7000709561957F4F0895F6F7909581959F4F08
:10FC80000895A1E21A2EAA1BBB1BFD010DC0AA1FDD
:10FC9000BB1FEE1FFF1FA217B307E407F50720F0F5
:10FCA000A21BB30BE40BF50B661F771F881F991F70
:10FCB0001A9469F760957095809590959B01AC01B9
:10FCC000BD01CF010895AA1BBB1B51E107C0AA1FAC
:10FCD000BB1FA617B70710F0A61BB70B881F991FED
:10FCE0005A95A9F780959095BC01CD010895F99991
:10FCF000FECF92BD81BDF89A992780B50895262F31
:10FD0000F999FECF1FBA92BD81BD20BD0FB6F89400
:0EFD1000FA9AF99A0FBE01960895F894FFCF63
:040000033000E000E9
:00000001FF