:1000000017C1000046C1000044C1000042C1000009
:1000100040C100003EC100003CC100003AC10000E8
:1000200038C1000036C1000034C1000032C10000F8
:1000300030C100002EC100002CC100002AC1000008
:1000400028C1000026C1000024C1000022C1000018
:1000500020C100001EC100001CC100000C94A408B7
:1000600018C10000B5C700008AC7000012C1000017
:1000700010C100000EC100000CC100000AC1000048
:1000800008C1000006C1000004C1000002C1000058
:1000900000C10000FEC00000FCC00000FAC000006B
:1000A000F8C00000F6C00000F4C00000F2C000007C
:1000B000F0C00000EEC00000ECC00000EAC000008C
:1000C000E8C00000E6C00000E4C00000E2C000009C
:1000D000E0C00000DEC00000DCC00000DAC00000AC
:1000E000D8C0000070027302620266026A02AA02AD
:1000F00077027B028102850289028F0293029702B6
:10010000AA029D02A102A502F203F603FA03FE036E
:10011000020406040A04810588058F0596059D05DD
:10012000B505A405B505AB05000021002400270096
:100130002A002D00300033000101000004010701F6
:100140000A0100002200250028002B002E003100AB
:10015000340002010000050108010B010505050539
:10016000070508080808020202020A0A080804042F
:10017000040401010101010101010303030303035D
:100180000303040707070C0C0C0C0C0C0C0C0202EC
:10019000020206060606060606060B0B0B0B0B0BE9
:1001A0000B0B010210202008081020401020408076
:1001B000020102010804020101020408102040802B
:1001C00080402010080402018004020180402010B9
:1001D0000804020108040201010204081020408002
:1001E000010204081020408000000A0B02090C0DD7
:1001F0000E080703040100000000000000000000DA
:1002000000000000000000000000000000000000EE
:1002100000000000121110000000000000000000AB
:100220000000000000000000000000000000EB0BD8
:1002300011241FBECFEFD1E2DEBFCDBF00E00CBF67
:1002400012E0A0E0B2E0E4E9FFE100E00BBF02C091
:1002500007900D92AA32B107D9F727E0AAE2B2E0DF
:1002600001C01D92A63CB207E1F711E0C8E1D1E060
:1002700000E006C021970109802FFE010E949A0F1D
:10028000C731D10780E00807A9F70E942A0A0C9419
:10029000C80FB6CEFC01918D828D981761F0828DCA
:1002A000DF01A80FB11D5D968C91928D9F5F9F73AA
:1002B000928F90E008958FEF9FEF0895FC01918D4C
:1002C000828D981731F0828DE80FF11D858D90E0B9
:1002D00008958FEF9FEF0895FC01918D228D892F56
:1002E00090E0805C9F4F821B91098F73992708953E
:1002F00083E392E0F1DF21E0892B09F420E0822FF3
:100300000895FC01848DDF01A80FB11DA35ABF4FD2
:100310002C91848D90E001968F739927848FA68904
:10032000B7892C93A089B1898C9180648C93938D2B
:10033000848D981306C00288F389E02D80818F7D1B
:1003400080830895EF92FF920F931F93CF93DF93D3
:10035000EC0181E0888F9B8D8C8D981305C0E88916
:10036000F989808185FD23C0F62E0B8D10E00F5F8B
:100370001F4F0F731127E02E8C8DE8120BC00FB6A4
:1003800007FCFACFE889F989808185FFF5CFCE0196
:10039000B8DFF2CF8B8DFE01E80FF11DE35AFF4F5E
:1003A000F0820B8FEA89FB898081806207C0EE8929
:1003B000FF896083E889F98980818064808381E096
:1003C00090E0DF91CF911F910F91FF90EF900895F2
:1003D000CF93DF93EC01888D8823C1F0EA89FB89F4
:1003E000808185FD05C0A889B9898C9186FD0EC0E4
:1003F0000FB607FCF5CF808185FFF2CFA889B989B8
:100400008C9185FFEDCFCE017CDFE8CFDF91CF91DE
:10041000089580E090E0892B19F06ADF811125C0F2
:1004200080E090E0892B41F080E090E0892B21F082
:100430000E94000081111CC080E090E0892B41F0F7
:1004400080E090E0892B21F00E940000811113C010
:1004500080E090E0892BA1F080E090E0892B81F092
:100460000E94000081110AC008950E940000D8CFA8
:100470000E940000E1CF0E940000EACF0C9400002F
:100480000895362F90E0FC01E851FE4F4491FC01A5
:10049000EE55FE4F2491FC01E45AFE4F94919923AE
:1004A00009F46BC0442309F455C050E0FA013197B8
:1004B000E231F10508F04EC08827EE58FF4F8F4F0C
:1004C0000C949A0F809180008F7707C080918000F4
:1004D0008F7D03C080918000877F809380003AC029
:1004E00084B58F7702C084B58F7D84BD33C0809181
:1004F000B0008F7703C08091B0008F7D8093B000F3
:1005000029C0809190008F7707C0809190008F7DE7
:1005100003C080919000877F809390001BC08091E2
:10052000A0008F7707C08091A0008F7D03C08091CD
:10053000A000877F8093A0000DC0809120018F775D
:1005400007C0809120018F7D03C080912001877FAB
:1005500080932001E92FF0E0EE0FFF1FEE5BFE4FCE
:10056000A591B4918FB7F894EC91311103C0209507
:100570002E2301C02E2B2C938FBF0895863308F0B5
:10058000865390917B00282F2870977F922B909311
:100590007B008770806480937C0080917A00806407
:1005A00080937A0080917A0086FDFCCF809178005C
:1005B0002091790090E0922B08954F925F926F9274
:1005C0007F92AF92BF92CF92DF92EF92FF920F9302
:1005D0001F93CF93DF93EC015A018B01CF88D88C06
:1005E000E98CFA8C2601370177FA709477F87094C9
:1005F000A3019201B501C8010E94C80D87FD0BC07F
:10060000A7019601B501C8010E94170F18162CF01A
:100610006501780102C07301620120E030E0A901A8
:10062000C701B6010E94C80D811105C01BA21CA202
:100630001DA21EA220C0A701960160E074E284E71B
:1006400099E40E94CC0D9F770E94390E6BA37CA386
:100650008DA39EA35E0183E4A80EB11C11E020E0EF
:1006600030E0A901C701B6010E94170F18160CF05F
:1006700010E0F5011083CB8ADC8AED8AFE8ADF91D7
:10068000CF911F910F91FF90EF90DF90CF90BF908F
:10069000AF907F906F905F904F900895CF92DF92D0
:1006A000EF92FF92CF93DF93FC01478550896189D8
:1006B000728983859485A585B685481759076A0789
:1006C0007B0711F480E06EC0EF01CD5BDF4F841734
:1006D0009507A607B7071CF481E0888301C018823C
:1006E00083A194A1A5A1B6A1892B8A2B8B2B51F3B1
:1006F0003FB7F89480912A0290912B02A0912C028E
:10070000B0912D0226B5A89B05C02F3F19F0019688
:10071000A11DB11D3FBFCC24D82EE92EFA2EC20E4A
:10072000D11CE11CF11C42E0CC0CDD1CEE1CFF1CBA
:100730004A95D1F787A190A5A1A5B2A5B701A601B9
:10074000481B590B6A0B7B0B83A194A1A5A1B6A1F1
:10075000481759076A077B0708F4B4CF28818385B7
:100760009485A585B685222321F00196A11DB11D92
:1007700003C00197A109B10983879487A587B6872C
:10078000EF010190F081E02D4B855C856D857E85C4
:100790000680F781E02DCE011995CFA2D8A6E9A653
:1007A000FAA681E0DF91CF91FF90EF90DF90CF909C
:1007B0000895CF93DF93DC0147705527662777278D
:1007C000FA013197CD91DC911197E730F10530F4C2
:1007D0008827EC57FF4F8F4F0C949A0FEC81FD81C7
:1007E00061E01BC0EC81FD8165E017C0EC81FD81FB
:1007F00064E013C0EC81FD8166E00FC0EC81FD81F7
:1008000062E00BC0EC81FD816AE007C0EC81FD81F4
:1008100068E003C0EC81FD8169E0CD01DF91CF91FB
:100820001994CF93DF93EC01CB01BA0126E030E0BD
:1008300040E050E00E947E0F623071058105910515
:1008400059F18CF46115710581059105F1F0613064
:10085000710581059105C1F5E881F9810480F58173
:10086000E02D65E02DC0643071058105910511F121
:10087000D4F0653071058105910531F5E881F98184
:100880000480F581E02D66E01BC0E881F9810480D9
:10089000F581E02D64E014C0E881F9810480F581E0
:1008A000E02D61E00DC0E881F9810480F581E02D43
:1008B00063E006C0E881F9810480F581E02D62E003
:1008C000CE01DF91CF911994DF91CF9108954370BC
:1008D000552766277727DC01ED91FC910480F5818F
:1008E000E02D423051056105710571F0433051052D
:1008F0006105710559F0413051056105710511F02F
:1009000065E005C066E003C06AE001C069E01994D3
:10091000CF93DF93EC01CB01BA0123E030E040E05C
:1009200050E00E947E0F613071058105910581F0D4
:10093000623071058105910591F0672B682B692B59
:10094000C1F4E881F9810480F581E02D64E00DC0F7
:10095000E881F9810480F581E02D61E006C0E8813D
:10096000F9810480F581E02D62E0CE01DF91CF9125
:100970001994DF91CF910895437055276627772703
:10098000DC01ED91FC910480F581E02D42305105B0
:100990006105710571F0433051056105710559F02C
:1009A000413051056105710511F062E005C063E059
:1009B00003C061E001C060E019940F931F93CF93CF
:1009C000DF93EC01E881F9810480F581E02D8C0151
:1009D0000D5B1F4FD8018C91811102C060E001C0F6
:1009E00062E0CE011995E881F9810480F581E02D5E
:1009F000D8018C91811102C061E001C063E0CE0199
:100A00001995EBA5FCA5E230F10538F0EE0FFF1FBC
:100A1000EE0FFF1F35973197F1F7E881F9810480D8
:100A2000F581E02DD8018C91811102C060E001C0F8
:100A300062E0CE01DF91CF911F910F911994CF9376
:100A4000DF93EC0120E030E0A9016B897C898D897E
:100A50009E890E94170F18161CF4EFA5F8A902C072
:100A6000E9A9FAA9DF91CF911994CF92DF92EF9281
:100A7000FF920F931F93CF93DF93FC0122812430C9
:100A800041F0283031F0233031F0263021F012E0EF
:100A900003C014E001C013E0EC012796E12CF12C17
:100AA000C62ED12C01E0C6010E2C02C0959587956B
:100AB0000A94E2F7688180FD6027FE013497808107
:100AC000E0DCFFEFEF1AFF0A2196E11660F3DF91F9
:100AD000CF911F910F91FF90EF90DF90CF900895ED
:100AE0000F931F93DC0112960C91129710E00930BE
:100AF0001105D8F5F8018827E557FF4F8F4F0C9463
:100B00009A0FED91FC9111970084F185E02D29C099
:100B1000ED91FC9111970284F385E02D22C0ED91B7
:100B2000FC9111970484F585E02D1BC0ED91FC919B
:100B300011970684F785E02D14C0ED91FC91119773
:100B40000088F189E02D0DC0ED91FC91119702888C
:100B5000F389E02D06C0ED91FC9111970488F58989
:100B6000E02DCD011F910F9119941F910F910895C0
:100B70002F923F924F925F926F927F928F929F92AD
:100B8000AF92BF92CF92DF92EF92FF920F931F939B
:100B9000CF93DF9300D01F92CDB7DEB71C01FC01CD
:100BA00087849088A188B28883859485A585B68539
:100BB000881A990AAA0ABB0A638974898589968961
:100BC0009B01AC010E941B0F6B017C01F101638D45
:100BD000748D858D968D9B01AC0176D79B01AC0100
:100BE000C701B601D9D70E94340E81149104A10423
:100BF000B104A1F462307105810591050CF07CC04F
:100C0000F10113A214A215A216A2138A148A158A3E
:100C1000168A13AA14AA15AA16AAFCC0F10103A9E0
:100C200014A925A936A9ED5BFF4F181419041A045D
:100C30001B04FCF410161106120613064CF468157A
:100C400079058A059B054CF52081211155C025C0E9
:100C5000011511052105310509F44EC06815790506
:100C60008A059B050CF048C08081882309F444C0A4
:100C700037C01016110612061306F4F400271127C8
:100C80009801081919092A093B0960177107820799
:100C900093071CF42081222379F19B01AC01882762
:100CA0009927DC01821B930BA40BB50BF10183ABDD
:100CB00094ABA5ABB6AB20C00115110521053105DC
:100CC000D9F0CC24DD247601C818D908EA08FB083D
:100CD0006C157D058E059F057CF4808181110CC00B
:100CE00030952095109501951F4F2F4F3F4FF101E3
:100CF00003AB14AB25AB36ABF101C3A8D4A8E5A870
:100D0000F6A881010D5B1F4FC114D104E104F10469
:100D100091F487A990ADA1ADB2AD83AF94AFA5AF6B
:100D2000B6AF81E0181419041A041B040CF080E01B
:100D3000F80180833BC0F10183AC94ACA5ACB6ACA8
:100D4000A5019401C501B401BFD62B013C01C70127
:100D5000B601BDD720E030E040E850E40E941B0F10
:100D600020E030E040E85FE3AFD69B01AC01C30177
:100D7000B20112D79B01AC01C501B401A4D64B014D
:100D80005C01F101FF964080518062807380920186
:100D9000A3010E94170F181614F042015301A40179
:100DA000B501F10143AF54AF65AF76AFFFEFCF1A96
:100DB000DF0AEF0AFF0AF101C3AAD4AAE5AAF6AA3C
:100DC00023AD34AD45AD56ADCA01B90129833A838F
:100DD0004B835C834ED7F10163A374A385A396A3D1
:100DE00029813A814B815C8160E074E284E799E477
:100DF000D3D6F101638B748B858B968BF8012081A0
:100E0000211108C0DC01CB01B058F101838B948B18
:100E1000A58BB68B0F900F900F900F90DF91CF9115
:100E20001F910F91FF90EF90DF90CF90BF90AF9008
:100E30009F908F907F906F905F904F903F902F90FA
:100E40000895CF92DF92EF92FF920F931F93CF936B
:100E5000DF938C01EB01DC011A966D917C911B975D
:100E600080E090E032D76B017C01EE81FF81D801F8
:100E70001D960C9110E0119501951109012E000CA1
:100E8000220B330B83859485A585B685080F191F22
:100E90002A1F3B1F87859089A189B28980179107F6
:100EA000A207B30731F00787108B218B328BCF015C
:100EB0005FDE0E80DF81C02D2B893C894D895E89E4
:100EC000C701B60165D6882361F0B701A601CE013E
:100ED000DF91CF911F910F91FF90EF90DF90CF9016
:100EE0006CCBDF91CF911F910F91FF90EF90DF902E
:100EF000CF900895CF92DF92EF92FF920F931F93BE
:100F0000CF93DF93EC0169017A01EE81FF810385C4
:100F1000148525853685060F111D211D311D8785F8
:100F20009089A189B28980179107A207B30731F090
:100F30000787108B218B328BCF011ADE0E80DF8169
:100F4000C02D2B893C894D895E89C701B60120D609
:100F5000882361F0B701A601CE01DF91CF911F91E7
:100F60000F91FF90EF90DF90CF9027CBDF91CF9143
:100F70001F910F91FF90EF90DF90CF9008951F92F7
:100F80000F920FB60F9211240BB60F922F933F932F
:100F90004F935F936F937F938F939F93AF93BF9381
:100FA000EF93FF9383E392E0ACD9FF91EF91BF9170
:100FB000AF919F918F917F916F915F914F913F91F1
:100FC0002F910F900BBE0F900FBE0F901F90189592
:100FD0001F920F920FB60F9211240BB60F922F9300
:100FE0008F939F93EF93FF93E0914302F09144021C
:100FF0008081E0914902F0914A0282FD12C0908105
:1010000080914C028F5F8F7320914D02821751F0B7
:10101000E0914C02F0E0ED5CFD4F958F80934C0227
:1010200001C08081FF91EF919F918F912F910F903F
:101030000BBE0F900FBE0F901F901895CF93DF93AC
:1010400090E0FC01EE55FE4F2491FC01E45AFE4F66
:101050008491882361F190E0880F991FFC01E85D7D
:10106000FE4FC591D491FC01EE5BFE4FA591B4916A
:10107000611109C09FB7F8948881209582238883E5
:10108000EC912E230BC0623061F49FB7F894388145
:10109000822F809583238883EC912E2B2C939FBFE6
:1010A00006C08FB7F894E8812E2B28838FBFDF917D
:1010B000CF910895CF93DF93FC012281222329F160
:1010C000EC0161E08381BADF61E08C81B7DF8A8166
:1010D000843011F0883031F461E08D81AFDF61E060
:1010E0008E8106C0833011F0863019F461E08D8165
:1010F000A5DF8EA58F3F49F061E0A0DF6DA581E0FF
:1011000068278EA5DF91CF91BCC9DF91CF9108955B
:10111000CF93DF93FC012281222399F0EC0101900F
:10112000F081E02D0480F581E02D60E019958EA519
:101130008F3F39F061E082DF6DA58EA5DF91CF9101
:10114000A0C9DF91CF9108951F920F920FB60F9211
:1011500011242F933F938F939F93AF93BF938091CD
:101160002F0290913002A0913102B0913202309161
:101170002E0223E0230F2D3720F40196A11DB11D6F
:1011800005C026E8230F0296A11DB11D20932E0253
:1011900080932F0290933002A0933102B0933202D9
:1011A00080912A0290912B02A0912C02B0912D02E5
:1011B0000196A11DB11D80932A0290932B02A0934A
:1011C0002C02B0932D02BF91AF919F918F913F91CF
:1011D0002F910F900FBE0F901F901895CF92DF9216
:1011E000EF92FF920F931F93CF93DF938C01EB014C
:1011F00084EF91E0D8018D939C938DEC9CECACEC4A
:10120000BDE3F80182839383A483B58377836683E8
:1012100020E030E04AEF53E46F89788D898D9A8D14
:10122000B7D48823B9F180E090E0AAEFB3E48F8BC4
:10123000988FA98FBA8F80E090E0AAEFB4E4FE0106
:10124000FF9680839183A283B3838BA99CA9ADA9C8
:10125000BEA9181619061A061B06E4F46B897C89C8
:101260008D899E899B01AC01E6D56B017C016B8D5C
:101270007C8D8D8D9E8D9B01AC0126D49B01AC0194
:10128000C701B60189D4F0D46BAB7CAB8DAB9EAB00
:10129000CE016EDCD8011696ED91FC91179713865E
:1012A0001486158616861786108A118A128A13AA42
:1012B00014AA15AA16AA13A214A215A216A2138A7A
:1012C000148A158A168ADF91CF911F910F91FF9092
:1012D000EF90DF90CF900895CF92DF92EF92FF9240
:1012E0000F93CF93DF93EC0184E092E0998388839E
:1012F0006A831B861C861D861E861F86188A198A8D
:101300001A8A1B8A1C8A1D8A1E8A80E090E0A0E847
:10131000BFE38F8B988FA98FBA8F1B8E1C8E1D8E6B
:101320001E8E8F8F98A3A9A3BAA31BA21CA21DA2D5
:101330001EA261E070E07CA76BA73FEF3EA71FA253
:1013400018A619A61AA64B832C830D83EE821BAA1E
:101350001CAA1DAA1EAA1FAA18AE19AE1AAE1BAE51
:101360001CAE1DAE1EAEFE01FF9680839183A2834C
:10137000B383349610821F82188619861A86CC2071
:1013800011F0CE0197DECB8CDC8CED8CFE8C20E056
:1013900030E040E85FE3C701B601FAD3882331F1BA
:1013A0006BA97CA98DA99EA992D4A701960143D5CA
:1013B0005BD46BAB7CAB8DAB9EAB86E896E6A9E6C7
:1013C000B9E48FAB98AFA9AFBAAF80E090E0A0E8E6
:1013D000BFE38B8F9C8FAD8FBE8FCE01DF91CF91FE
:1013E0000F91FF90EF90DF90CF90C2CBDF91CF9124
:1013F0000F91FF90EF90DF90CF900895CF92DF9202
:10140000EF92FF920F931F93CF93DF936C017A01BA
:101410008B01C0E0D0E0CE15DF0589F0D8016D91D9
:101420008D01D601ED91FC910190F081E02DC60176
:101430001995892B11F47E0102C02196ECCFC701CA
:10144000DF91CF911F910F91FF90EF90DF90CF90A0
:1014500008959AD5789484B5826084BD84B58160FE
:1014600084BD85B5826085BD85B5816085BD80916F
:101470006E00816080936E001092810080918100E7
:1014800082608093810080918100816080938100DF
:10149000809180008160809380008091B1008460A1
:1014A0008093B1008091B00081608093B000809102
:1014B000910082608093910080919100816080937F
:1014C0009100809190008160809390008091A100B4
:1014D00082608093A1008091A10081608093A1002F
:1014E0008091A00081608093A000809121018260A2
:1014F000809321018091210181608093210180915D
:10150000200181608093200180917A008460809323
:101510007A0080917A00826080937A0080917A00CC
:10152000816080937A0080917A00806880937A004D
:101530001092C100E0914302F091440282E0808366
:10154000E0913F02F09140021082E0914102F0915F
:1015500042028FEC808310924B02E0914702F0919F
:10156000480286E08083E0914502F0914602808146
:1015700080618083E0914502F0914602808188601D
:101580008083E0914502F0914602808180688083EB
:10159000E0914502F091460280818F7D8083E09149
:1015A000E202F091E30286819781FC0103851485B4
:1015B0002585368547855089618972890417150705
:1015C00026073707A1F4E091E402F091E5020680D6
:1015D000F781E02D0385148525853685478550895B
:1015E000618972890417150726073707B9F056D89D
:1015F000E091E402F091E502868197814FD8E09175
:10160000E602F091E7028681978148D8E091E802EE
:10161000F091E9028681978141D89FC0E091E6026E
:10162000F091E7020680F781E02D0385148525857A
:101630003685478550896189728904171507260701
:101640003707A9F6E091E802F091E9020680F781F8
:10165000E02D038514852585368547855089618968
:101660007289041715072607370709F0C0CF809144
:10167000F6020E94BE02EC018091F8020E94BE02B6
:101680004091F2025091F3026091F4027091F502E0
:10169000FA01E61BF70BCE17DF0708F461C0B1E0D3
:1016A000A0E09B01240F351F2C173D0708F0B0E088
:1016B0002B2F3A2F3093FB022093FA028E179F07AD
:1016C00008F451C0640F751F41E050E068177907B6
:1016D00010F040E050E088279927841B950B9093E9
:1016E000FD028093FC022130310509F03FC060917A
:1016F000E4027091E50280ED92E0A3DB6091DA02F2
:101700007091DB0280E090E0E0D29B01AC0160913F
:10171000DD028091E8029091E902ECDB8091FC020D
:101720009091FD028130910509F03BC06091E20289
:101730007091E30280ED92E084DB6091DA027091B7
:10174000DB0280E090E0C1D29B01AC016091DD0240
:101750008091E6029091E702CDDB0E9409021FCF43
:101760002FEF3FEFA7CF81E090E0B9CF2F3F3F4F62
:10177000A9F66091DA027091DB0280E090E0A5D2D8
:101780009B01AC016091DD028091E4029091E50241
:10179000B1DB6091E8027091E90280ED92E051DBEB
:1017A000BDCF0196D1F66091DA027091DB0280E044
:1017B00090E08BD29B01AC016091DD028091E2024E
:1017C0009091E30297DB6091E6027091E70280ED71
:1017D00092E037DBC2CF8F929F92AF92BF92CF92AF
:1017E000EF920F93CF93DF93E3E3F2E01382128241
:1017F00088EE882E83E0982EA12CB12C84829582CD
:10180000A682B7828EE192E09183808385EC90E09E
:101810009587848784EC90E09787868780EC90E0BA
:10182000918B808B81EC90E0938B828B82EC90E0AB
:10183000958B848B86EC90E0978B868B118E128E25
:10184000138E148EE2EFF2E088E092E091838083C1
:1018500084E190E09383828311861086138612863A
:101860008EE390E0958384838FE390E09783868373
:1018700060E08EE3E3DB60E08FE3E0DB1092C5071E
:1018800060E080E0DBDBD1E0D093C40760E081E082
:10189000D5DBC2E0C093C30760E082E0CFDB83E02A
:1018A0008093C20760E0CADBCC24C39495E0E92EA4
:1018B00004E02AE14CE161E08EE797E00DDD6EE7A0
:1018C00077E086E797E08ADC86E08093750760E042
:1018D000B5DB2BE24DE261E081E397E0FDDC61E303
:1018E00077E089E297E07ADC89E08093280760E07E
:1018F000A5DB2FE141E261E084EE96E0EDDC64EEF1
:1019000076E08CED96E06ADC8CE08093DB0660E0AC
:1019100095DB23E245E261E087E996E0DDDC67E9FB
:1019200076E08FE896E05ADC8FE080938E0660E0E8
:1019300085DB27E249E261E08AE496E0CDDC6AE4F7
:1019400076E082E496E04ADC2EE140E261E08EEF50
:1019500095E0C2DC6EEF75E086EF95E03FDC22E3B8
:1019600044E361E082EB95E0B7DC62EB75E08AEA84
:1019700095E034DC22E244E261E086E695E0ACDC0E
:1019800066E675E08EE595E029DC27E149E161E056
:101990008AE195E0A1DC6AE175E082E195E01EDC78
:1019A0002AE24CE261E08EEC94E096DC6EEC74E0AE
:1019B00086EC94E013DC26E248E261E082E894E001
:1019C0008BDC62E874E08AE794E008DC2EE240E316
:1019D00061E086E394E080DC66E374E08EE294E00C
:1019E000FDDB2FE241E361E08AEE93E075DC6AEE15
:1019F00073E082EE93E0F2DB23E345E361E08EE9FE
:101A000093E06ADC6EE973E086E993E0E7DB2BE1C3
:101A10004DE161E082E593E05FDC62E573E08AE43A
:101A200093E0DCDB26E148E161E086E093E054DC12
:101A300066E073E08EEF92E0D1DBE0EDF2E08082D1
:101A40009182A282B38280ED97E0A0E0B0E084832F
:101A50009583A683B7838AEF90E0918780878CE295
:101A600091E093878287D487C58716861786108A68
:101A7000118A86E797E0938B828B89E297E0958BBA
:101A8000848B8CED96E0978B868B8FE896E0918F18
:101A9000808F85E797E0938F828F88E297E0958F1C
:101AA000848F8BED96E0978F868F8EE896E091A3DA
:101AB00080A3DF91CF910F91EF90CF90BF90AF9027
:101AC0009F908F9008955058BB27AA270ED075C1BC
:101AD00066D130F06BD120F031F49F3F11F41EF449
:101AE0005BC10EF4E095E7FB51C1E92F77D180F39C
:101AF000BA17620773078407950718F071F49EF50B
:101B00008FC10EF4E0950B2EBA2FA02D0B01B90159
:101B100090010C01CA01A0011124FF27591B99F063
:101B2000593F50F4503E68F11A16F040A22F232F6F
:101B3000342F4427585FF3CF469537952795A795BF
:101B4000F0405395C9F77EF41F16BA0B620B730B66
:101B5000840BBAF09150A1F0FF0FBB1F661F771FD7
:101B6000881FC2F70EC0BA0F621F731F841F48F48C
:101B7000879577956795B795F7959E3F08F0B3CF12
:101B80009395880F08F09927EE0F979587950895FC
:101B9000D9D008F481E008950CD00FC107D140F0EE
:101BA000FED030F021F45F3F19F0F0C0511139C17F
:101BB000F3C014D198F39923C9F35523B1F3951BBE
:101BC000550BBB27AA2762177307840738F09F5F5E
:101BD0005F4F220F331F441FAA1FA9F333D00E2ECD
:101BE0003AF0E0E830D091505040E695001CCAF73A
:101BF00029D0FE2F27D0660F771F881FBB1F2617FF
:101C000037074807AB07B0E809F0BB0B802DBF01D1
:101C1000FF2793585F4F2AF09E3F510568F0B6C0EA
:101C200000C15F3FECF3983EDCF3869577956795AE
:101C3000B795F7959F5FC9F7880F911D9695879582
:101C400097F90895E1E0660F771F881FBB1F6217A1
:101C500073078407BA0720F0621B730B840BBA0B5F
:101C6000EE1F88F7E095089504D06894B111D9C0AB
:101C70000895BCD088F09F5790F0B92F9927B7519D
:101C8000A0F0D1F0660F771F881F991F1AF0BA9540
:101C9000C9F712C0B13081F0C3D0B1E00895C0C01F
:101CA000672F782F8827B85F39F0B93FCCF3869536
:101CB00077956795B395D9F73EF490958095709593
:101CC00061957F4F8F4F9F4F0895E89409C097FB10
:101CD0003EF490958095709561957F4F8F4F9F4F03
:101CE0009923A9F0F92F96E9BB279395F695879547
:101CF00077956795B795F111F8CFFAF4BB0F11F40A
:101D000060FF1BC06F5F7F4F8F4F9F4F16C08823B0
:101D100011F096E911C0772321F09EE8872F762FE6
:101D200005C0662371F096E8862F70E060E02AF027
:101D30009A95660F771F881FDAF7880F9695879513
:101D400097F90895990F0008550FAA0BE0E8FEEFE8
:101D500016161706E807F907C0F012161306E4076F
:101D6000F50798F0621B730B840B950B39F40A2668
:101D700061F0232B242B252B21F408950A2609F446
:101D8000A140A6958FEF811D811D089597F99F674A
:101D900080E870E060E008959FEF80EC08950024F3
:101DA0000A941616170618060906089500240A94C0
:101DB00012161306140605060895092E0394000C46
:101DC00011F4882352F0BB0F40F4BF2B11F460FFD5
:101DD00004C06F5F7F4F8F4F9F4F089557FD9058FE
:101DE000440F551F59F05F3F71F04795880F97FBDF
:101DF000991F61F09F3F79F0879508951216130699
:101E00001406551FF2CF4695F1DF08C016161706C7
:101E10001806991FF1CF86957105610508940895FC
:101E2000E894BB2766277727CB0197F908958ADFC7
:101E300008F48FEF08950BD0C0CFB1DF28F0B6DFE4
:101E400018F0952309F0A2CFA7CF1124EACFC6DF5F
:101E5000A0F3959FD1F3950F50E0551F629FF001BD
:101E6000729FBB27F00DB11D639FAA27F00DB11D16
:101E7000AA1F649F6627B00DA11D661F829F22279F
:101E8000B00DA11D621F739FB00DA11D621F839F26
:101E9000A00D611D221F749F3327A00D611D231FFC
:101EA000849F600D211D822F762F6A2F11249F574A
:101EB00050408AF0E1F088234AF0EE0FFF1FBB1F6D
:101EC000661F771F881F91505040A9F79E3F51050C
:101ED00070F05CCFA6CF5F3FECF3983EDCF38695C5
:101EE00077956795B795F795E7959F5FC1F7FE2BB7
:101EF000880F911D9695879597F90895052E97FB64
:101F000016F400940FD057FD05D01CD007FC02D06A
:101F100046F408C050954095309521953F4F4F4F5E
:101F20005F4F089590958095709561957F4F8F4F85
:101F30009F4F0895EE0FFF1F881F8BBF0790F691EC
:101F4000E02D1994A1E21A2EAA1BBB1BFD010DC0A6
:101F5000AA1FBB1FEE1FFF1FA217B307E407F50759
:101F600020F0A21BB30BE40BF50B661F771F881F35
:101F7000991F1A9469F760957095809590959B01CB
:101F8000AC01BD01CF01089581E090E0F89400C05C
:041F9000F894FFCFF3
:101F94000000000088085A08350570051F05DD0497
:101FA400BC04880467041104D90300000000A201E2
:0A1FB400FE096C014A015E01E8011C
:00000001FF
